:100000000C9484070C94BC070C94BC070C94BC079C
:100010000C94BC070C94BC070C94BC070C94BC0754
:100020000C94BC070C94BC070C949D2D0C94592D7A
:100030000C94F02E0C94BC070C94BC070C94BC07D9
:100040000C94BC070C94BC070C94BC070C94BC0724
:100050000C94BC070C94CC2E0C94BC070C94BC07DD
:100060000C94BC070C94BC070C94BC070C94BC0704
:100070000C94BC070C94BC070C94BC070C94BC07F4
:100080000C94BC070C94BC070C94BC070C94BC07E4
:100090000C94BC070C94BC070C94BC070C94BC07D4
:1000A0000C94BC070C94BC070C94BC070631FF09E8
:1000B00074A1010975150026FF00952075088102BD
:1000C0000976150026FF00952075089102C00501EC
:1000D0000902A10185020901A100050919012905EB
:1000E00015002501950575018102950175038101B2
:1000F0000501093009311581257F950275088106B2
:1001000009381581257F950175088106050C0A3887
:10011000021581257F950175088106C0C00501097A
:1001200080A101850319012AB700150126B70095A2
:100130000175108100C0050C0901A1018504190198
:100140002AA002150126A002950175108100C006A3
:1001500060FF0961A1010962150026FF0095207565
:100160000881020963150026FF0095207508910299
:10017000C005010906A101050719E029E7150025B9
:10018000019508750181029501750881010507191E
:100190000029FF150026FF00950675088100050857
:1001A00019012905950575019102950175039101C4
:1001B000C03F00433E20005B735D00253032583A5B
:1001C00020253038620A000A722F63203031323322
:1001D000343536370A006432141E140A05FD377AA6
:1001E000585A000004E6D6B4460200210116000069
:1001F00000742FE5A3E0032601335D003D8889C626
:100200005436C3174FE4E00A876759D4672187DA69
:100210006F033E34A745CD6F4BE8E25B51D2816559
:10022000F95C74906DCC4249FAFDACF950E160A4E0
:10023000AFFEB6EAD8CA54AFA1BB1DB82D5F140DEE
:10024000CCA2A2B43A7917AB3F3843084B611C7873
:100250006791301F12AD3DF505BE5085275CD74F25
:10026000855A7DE20C2D53226E8790BA6810AB79C7
:10027000CB86D4517B864931E8B8EB679277DD9B1A
:100280005DC3852380C62139939CEB50334C436971
:100290002485ACDE0CD8AE339E61987A1C6EE70FD5
:1002A000125F8801E7999CB12C581FE0218C5A8E6F
:1002B0008D49EB6E6A7E128E39F0F1319997D974BF
:1002C000F6D4B09A1156BD81B07CA309D3EBE121DD
:1002D000F5F5FF74CE561BA2146E4DE8619BC4E485
:1002E000786A535699DCCA14DA6E4C95D2E95643B3
:1002F000AA9C22DDD88D58C8AEBF654928DD0DAE59
:1003000070BBF15134F932F54BA71BFF283615307D
:100310006C2553BB5EFD1F99DC8BAA3EF39BB1FCA1
:100320007590E03BC6C27A3D22639A33377206006D
:1003300000C72055859C5B8A550001CF02A70600A7
:1003400000D2761A8DB1C467FB0200000000045988
:100350005A290A002575002F002575005D28002503
:10036000640020002564002000256400200025642E
:10037000007C0025303258006D6F7573656B6579B0
:10038000205B62746E7C782079207620685D28720C
:1003900065702F61636C293A205B00000101010147
:1003A0000101010101020202020202020202030330
:1003B0000303030303030404040404040405050500
:1003C00005050606060606070707070708080808C2
:1003D000090909090A0A0A0B0B0B0C0C0C0D0D0D6F
:1003E0000E0E0E0F0F0F1010111111121213131405
:1003F00014151516161717181819191A1A1B1B1C7D
:100400001D1D1E1E1F2020212222232424252626D6
:10041000272829292A2B2C2D2D2E2F30313232330B
:100420003435363738393A3B3C3D3E3F4041424314
:100430004445464748494A4C4D4E4F5051535455F8
:100440005658595A5B5D5E5F616264656668696BA8
:100450006C6D6F7072737577787A7B7D7E80828326
:100460008587888A8C8E8F91939596989A9C9EA06A
:10047000A2A3A5A7A9ABADAFB1B3B5B7BABCBEC077
:10048000C2C4C6C9CBCDCFD1D4D6D8DBDDDFE2E440
:10049000E7E9EBEEF0F3F5F8FAFDFF222325262835
:1004A000292A2C2D2F3032333536383A3B3D3E4009
:1004B00042434547494A4C4E5051535557595A5C4F
:1004C0005E6062646668696B6D6F71737577797B66
:1004D0007D7F81838587898A8C8E90929496989A65
:1004E0009C9E9FA1A3A5A7A8AAACAEAFB1B3B4B67A
:1004F000B8B9BBBCBEBFC1C2C3C5C6C7C9CACBCCD5
:10050000CDCED0D1D2D2D3D4D5D6D7D7D8D9D9DAA7
:10051000DADBDBDBDCDCDCDCDCDDDDDDDDDCDCDC1C
:10052000DCDCDBDBDBDADAD9D9D8D7D7D6D5D4D344
:10053000D2D2D1D0CECDCCCBCAC9C7C6C5C3C2C119
:10054000BFBEBCBBB9B8B6B4B3B1AFAEACAAA8A776
:10055000A5A3A19F9E9C9A98969492908E8C8A892E
:10056000878583817F7D7B79777573716F6D6B690B
:1005700068666462605E5C5A5957555351504E4CE0
:100580004A4947454342403E3D3B3A38363533328F
:10059000302F2D2C2A2928262523221F0014001A4B
:1005A00000160004001D001B00060020002100159D
:1005B0000008000700090019000500220023001CA4
:1005C0000017000A000B00110000001E0029002B7C
:1005D00000E000E100E200E3002C00240025001808
:1005E000000C000E000D0010000000310035002A44
:1005F0000028000151E500E600E700260027001270
:1006000000130033000F00360000002D002E0030D4
:10061000002F0034003800370000003B00010001CB
:1006200000A900AA000100010001003C003D0001FA
:10063000000100A8000100010001003E003F000190
:1006400000010001005500570000003A00A50039E4
:100650000001000100010001000100400041000113
:100660000046004A0054005600000049004C002A91
:100670000058000100010001000100420043004752
:1006800000480050004B004D0000004400450001B0
:100690000052004F0051004E00000001000100BE5A
:1006A00003F2152516000002000200BA03F2152518
:1006B00016000003000100BF03F215251600000418
:1006C000000200A403F21525160D0B05000100C061
:1006D00003F2152516000006000200A603F21525F8
:1006E00016000007000200BC03F2152516000008E2
:1006F000000100C103F2152516000009000200A840
:1007000003F2152516E80A0A000200AA03F21525CD
:1007100016E80A0B000200AC03F2152516E80A0CD5
:10072000000200AE03F2152516E80A0D000200B023
:1007300003F2152516E80A0E000200B203F2152591
:1007400016E80A0F000200B403F2152516E80A1095
:10075000000200B603F2152516E80A11000200B8DF
:1007600003F2152516E80A12000200C203F215254D
:1007700016000013000200C403F215251600001431
:10078000000100C603F21525160000150000000048
:10079000006E0A7C1C00006B65796D61705F636F91
:1007A0006E6669672E7261773A20253032580A2EBC
:1007B000737761705F636F6E74726F6C5F6361708B
:1007C000736C6F636B3A2025750A2E636170736CCE
:1007D0006F636B5F746F5F636F6E74726F6C3A20E0
:1007E00025750A2E737761705F6C63746C5F6C673C
:1007F00075693A2025750A2E737761705F7263748C
:100800006C5F726775693A2025750A2E737761707F
:100810005F6C616C745F6C6775693A2025750A2E90
:10082000737761705F72616C745F726775693A208B
:1008300025750A2E6E6F5F6775693A2025750A2E39
:10084000737761705F67726176655F6573633A2085
:1008500025750A2E737761705F6261636B736C61DB
:1008600073685F6261636B73706163653A202575BD
:100870000A2E6E6B726F3A2025750A2E737761709F
:100880005F6573636170655F636170736C6F636BE9
:100890003A2025750A0064656275675F636F6E664E
:1008A00069672E7261773A20253032580A2E656EBC
:1008B00061626C653A2025750A2E6D6174726978E3
:1008C0003A2025750A2E6B6579626F6172643A2051
:1008D00025750A2E6D6F7573653A2025750A0065BA
:1008E00065636F6E6669673A0A64656661756C7404
:1008F0005F6C617965723A2025750A000A092D201E
:100900004D61676963202D0A443A09446562756741
:10091000204D65737361676520546F67676C650A66
:10092000583A094D61747269782044656275672090
:100930004D6F646520546F67676C65202D20536888
:100940006F77206B65797072657373657320696E5C
:10095000206D617472697820677269640A4B3A0984
:100960004B6579626F6172642044656275672054DB
:100970006F67676C65202D2053686F77206B6579F2
:100980007072657373207265706F72740A4D3A09E4
:100990004465627567204D6F75736520546F676796
:1009A0006C650A563A0956657273696F6E0A533A56
:1009B000095374617475730A433A09416374697623
:1009C00061746520436F6E736F6C65204D6F646555
:1009D0000A46312D4631303A0953776974636820ED
:1009E000746F204C6179657220302D392028463192
:1009F00030203D204C30290A302D393A095377698F
:100A000074636820746F204C6179657220302D39D1
:100A10000A47524156453A0953776974636820740E
:100A20006F204C6179657220302028616C7465728A
:100A30006E617465290A423A094A756D7020746FB7
:100A400020426F6F746C6F616465720A4553433A5C
:100A5000094A756D7020746F20426F6F746C6F61FE
:100A60006465722028616C7465726E617465290A10
:100A7000453A095072696E7420454550524F4D20D9
:100A800053657474696E67730A4253504143453A23
:100A900009436C65617220454550524F4D0A000A6A
:100AA000092D20436F6E736F6C65202D0A455343EB
:100AB0002F713A09717569740A6D3A096D6F757312
:100AC000656B65790A002573000A092D205374614E
:100AD000747573202D0A686F73745F6B6579626F2C
:100AE0006172645F6C65647328293A20253032583E
:100AF0000A6B6579626F6172645F70726F746F63A5
:100B00006F6C3A20253032580A6B6579626F6172DA
:100B1000645F69646C653A20253032580A74696DE7
:100B200065725F72656164333228293A2025303856
:100B30006C580A003F000A6D6F7573653A206F6646
:100B4000660A000A6D6F7573653A206F6E0A000AB7
:100B50006B6579626F6172643A206F66660A000A9B
:100B60006B6579626F6172643A206F6E0A000A6D7C
:100B700061747269783A206F66660A000A6D617462
:100B80007269783A206F6E0A000A64656275673A86
:100B9000206F66660A000A64656275673A206F6EA8
:100BA0000A000A0A4A756D70696E6720746F2062C8
:100BB0006F6F746C6F616465722E2E2E2000433E41
:100BC0002000436C656172696E6720454550524F45
:100BD0004D0A00313A0964656C6179282A31306D1B
:100BE00073293A2025750A323A09696E746572765E
:100BF000616C286D73293A2025750A333A096D61B5
:100C0000785F73706565643A2025750A343A097413
:100C1000696D655F746F5F6D61783A2025750A357F
:100C20003A09776865656C5F6D61785F73706565BB
:100C3000643A2025750A363A09776865656C5F74F1
:100C4000696D655F746F5F6D61783A2025750A0084
:100C5000703A097072696E742076616C7565730AFA
:100C6000643A097365742064656661756C74730A0F
:100C700075703A092B310A646E3A092D310A6C7489
:100C80003A092B31300A72743A092D31300A455332
:100C9000432F713A09717569740A0A737065656446
:100CA000203D2064656C7461202A206D61785F733B
:100CB00070656564202A2028726570656174202F34
:100CC0002074696D655F746F5F6D6178290A77685C
:100CD0006572652064656C74613A20637572736F28
:100CE000723D25642C20776865656C3D25640A5348
:100CF000656520687474703A2F2F656E2E77696B66
:100D00006970656469612E6F72672F77696B692FEF
:100D10004D6F7573655F6B6579730A004D3E2000FA
:100D20004D25753A25733E20003F0A003D2025756C
:100D30000A003F0A0064656661756C74730A0025D9
:100D4000750A003F0A000A092D2056616C7565730B
:100D5000202D0A00710A000A092D204D6F75736558
:100D60006B6579202D0A004C25640A005B435D0009
:100D70005B445D005B535D005B575D005B525D0053
:100D800009027B00040100A0FA090400000103012C
:100D9000010009211101000122400007058103081B
:100DA00000010904010002030000000921110100F3
:100DB000012222000705820320000107050303200A
:100DC00000010904020001030000000921110100D3
:100DD00001228100070584032000010904030002A9
:100DE00003000000092111010001222200070585EE
:100DF0000320000107050503200001120100020085
:100E0000000008696301000100010203011C037670
:100E100000690061006C003A00660036003400632F
:100E200000320062003300630000001403480048F1
:100E3000004B004200200041004E005300490000DA
:100E400000100343006900700075006C006F0074AF
:100E5000000000040309040000000000000000007E
:100E60000000000000000000000000000000000082
:100E700000000000000000000000007E0F00D4FF12
:100E8000FFFFC70000007800000000000000002AFB
:100E90002B280000000000000000000000000000FF
:100EA000000029000000002C1E34202122243426BA
:100EB00027252E362D3738271E1F202122232425B3
:100EC000263333362E37381F0405060708090A0B68
:100ED0000C0D0E0F101112131415161718191A1BDA
:100EE0001C1D2F3130232D350405060708090A0B78
:100EF0000C0D0E0F101112131415161718191A1BBA
:100F00001C1D2F3130354C0011241FBECFEFDAE00D
:100F1000DEBFCDBF04B603FE18C08091F5039091EB
:100F2000F603A091F703B091F8038730904BA740E8
:100F3000B04B59F41092F5031092F6031092F70398
:100F40001092F803E0E0F8E3099512E0A0E0B1E0C8
:100F5000E4ECFDE602C005900D92A239B107D9F785
:100F600023E0A2E9B2E001C01D92A53FB207E1F77C
:100F70000E94172F0C94BC360C940000FF93EF9343
:100F8000E0919202F0919302309709F00995EF9168
:100F9000FF910895FC018591803011F0EFDFFBCFC8
:100FA0000895FF27E0E230E247FF0CC0419597FF2C
:100FB00009C0EDE26095709580959095611D711D59
:100FC000811D911D27FF02C0219530E350E2AA2721
:100FD000660F771F881F991FAA1FA41710F0A41B64
:100FE00063955A95A9F7AA3008F0A95FA05DAF9361
:100FF000F395611571058105910541F7ED3211F405
:10100000EF93F395F21718F43F93F395FBCF8F917D
:10101000B5DFFA95E1F70895E991F991859180306E
:1010200021F0853219F0AADFF9CF089520E0E89485
:1010300055915532C1F3503311F4689455915A3398
:1010400048F4505390F3220F022E220F220F200D4E
:10105000250FF4CF0EF4219589919991533619F308
:10106000533729F1533559F1BC0188279927E89462
:101070005C3621F48991999168945591543639F4EC
:1010800046EF7EF077FF0DC08FEF9FEF0AC0553718
:101090004AE039F0583540E121F0523642E009F09B
:1010A0000895FF93EF937DDFEF91FF91B7CFFF930B
:1010B000EF93FC0181918030B9F360DFFBCFFF93A8
:1010C000EF9368DFF1CFDF93CF93CDB7DEB72596EF
:1010D000A3DFCF91DF910895E8EDF0E080818E7F6E
:1010E00080831092E2001092DA001092E100A0EEEC
:1010F000B0E08C9181608C9380818F77808319BC64
:10110000A7EDB0E08C918E7F8C9380818F7E808361
:101110001092DC0308952091E4003091E50095E6FB
:10112000A9012091EC00822F817020FF06C08091E0
:10113000E80080FF06C080E008952091E80022FDCD
:101140001AC08091E903882389F0853089F0809165
:10115000EB0085FD0FC02091E4003091E5004217BF
:101160005307F9F29150E1F684E0089582E0089582
:1011700083E0089581E00895EF92FF920F931F930B
:10118000CF937C018B010E948B08C82F811117C05F
:101190008091E80085FD0BC08091E8008E778093F8
:1011A000E8000E948B08882399F3C82F08C0F70134
:1011B00081917F018093F1000150110949F78C2F33
:1011C000CF911F910F91FF90EF9008958091EB03C5
:1011D00087FF13C08091E80082FF06C08091E8007D
:1011E0008B778093E80004C08091E9038111F2CFEE
:1011F00008958091E9038823D9F38091E80080FF66
:10120000F8CF8091E8008E77ECCF982F9093E9008B
:10121000242F762F50E0891731F07091EC00209147
:10122000ED005091F00021FD07C09F5F973071F7EE
:101230008093E90081E008953091EB003E7F309388
:10124000EB003091ED003D7F3093ED003091EB00ED
:1012500031603093EB007093EC002093ED005093DD
:10126000F0002091EE0027FDE0CF80E00895B0E08F
:10127000A0E0EDE3F9E00C941436C8EDD0E08881ED
:101280008F7E8883E7EDF0E080818160808384E059
:1012900082BF81E08093DC0388818E7F888302EEA9
:1012A00010E0F80110821092DA0081EEC82ED12CE5
:1012B000F601108288818F7788838881806888838F
:1012C00088818F7D888319BC1092E9031092EA030C
:1012D0001092E8031092E70390EEE92EF12CF7014B
:1012E00080818B7F808388818160888342E060E099
:1012F00080E00E940509F60180818E7F8083F801DD
:10130000808181608083808188608083F701808113
:101310008E7F8083888180618883CDB7DEB7E8E0E7
:101320000C943036FC018091F1039091F203861702
:101330009707A0F06115710529F49091E8009E7758
:101340009093E80090E06115710551F4911108C087
:101350008091E80082FF34C080E00895BC01F2CFA4
:101360008091E9038823C1F18530C1F18091E800C3
:1013700083FD30C08091E80082FDEACF8091E800D3
:1013800080FFE1CF8091F3002091F200382F6115AA
:10139000710519F02830310558F091E028303105F9
:1013A00009F090E02091E8002E772093E800CBCF61
:1013B00081918093F100615071092F5F3F4FE7CF1A
:1013C0008091E903882341F0853041F08091E80065
:1013D00083FFBECF81E0089582E0089583E0089501
:1013E00008958091DE0308959C014FB7F894809191
:1013F000D2039091D303A091D403B091D5034FBFF2
:10140000821B930B08952FB7F8946091D2037091CB
:10141000D3038091D4039091D5032FBF08952FB7A4
:10142000F8948091D2039091D303A091D403B0910A
:10143000D5032FBF08959C01FC0132969FEF80E0F9
:101440004191461751F09F3F19F4411101C0982F67
:101450008F5F8630A9F79F3F09F40895290F311D4A
:1014600097FD3A95F901628308952091CF03309159
:10147000D0032817390771F09093D0038093CF03DE
:10148000E091CD03F091CE03309721F00084F185F7
:10149000E02D099508952091CB033091CC032817B6
:1014A000390771F09093CC038093CB03E091CD0387
:1014B000F091CE03309721F00680F781E02D099559
:1014C0000895E091CD03F091CE03309729F001907B
:1014D000F081E02D0995089580E00895B0E0A0E046
:1014E000E4E7FAE00C9412368FEF9FEF4430510599
:1014F00008F469C04091760341FB882780F990E0A9
:10150000880F991F42FB002700F910E0000F111F00
:10151000000F111F802B912B40FBCC24C0F8D12C45
:101520008C299D2943FB222720F9C22FE0E0DE2FE2
:1015300053E0CC0FDD1F5A95E1F78C2B9D2B44FB1C
:10154000AA27A0F9B0E0E4E0AA0FBB1FEA95E1F7F3
:101550008A2B9B2B45FBEE27E0F9F0E0A5E0EE0F90
:10156000FF1FAA95E1F78E2B9F2B46FB222720F920
:1015700030E0B6E0220F331FBA95E1F7822B932BB0
:1015800047FB222720F930E03695322F2227379566
:101590002795822B932B20917703322F3170F32ED6
:1015A000E82EF92A26952170B22EBB0CA82EBF2852
:1015B000C501BB0CAA0BBB0BFB0180839183A283EB
:1015C000B38390E080E0CDB7DEB7EAE00C942E362E
:1015D000E4EAF3E0848195812AE030E0B9010E94D9
:1015E000D535609319018681809318018285809397
:1015F000170184858093160186859785B9010E941D
:10160000D53560930E01808980930D018289809386
:10161000150184898093140108958091A403909109
:10162000A5039093100180930F010895FA01811191
:1016300001C0FB0109950895089580916D03982FCD
:101640009E7F29F48170826080936D0308958831B4
:10165000E8F381708661F8CFAF92BF92DF92EF928C
:10166000FF920F931F93CF93DF93082F162FE9015B
:10167000E42FF0E0E556FC4F611110C0E4915E2FBD
:101680004E2F4983E8835A83DF91CF911F910F91A9
:10169000FF90EF90DF90BF90AF900895E62EF12C71
:1016A0004491D42EE42FF0E026E0829FC001112463
:1016B0002FEF30E0B9010E94D535802F90E0880FE0
:1016C000991F55E5569FD001579FB00D11248A1BD5
:1016D0009B0B982F990F890F5901AE18BF08AE9E2A
:1016E000D001AF9EB00DBE9EB00D11245B2F189F90
:1016F00080011124012F11275901A01AB10AAE9EB1
:101700008001AF9E100DBE9E100D11245901A81A24
:10171000B108AE9CC001AF9C900DBE9C900D1124F1
:10172000892F9927281B390B2E9FC0012F9F900DC1
:101730003E9F900D1124E92F62307105A1F050F405
:101740006115710509F49DCF6130710581F0EB2FB2
:10175000512F97CF6430710569F080F066307105C4
:1017600009F48FCFF4CFE42F4B2F592F8ACFE42FDA
:10177000412F87CFEB2F542F492F83CF4B2F5D2D38
:10178000E12F7FCF90913403803F59F4809135034E
:1017900087FF0DC01092350391110BC010922D03DD
:1017A00008C0813F81F48091350318169CF399237A
:1017B00081F08091360390913703892B09F064C042
:1017C00010922B030895823F49F497FFF0CF1092B7
:1017D0003403809135038111ECCFE0CF833F19F4BE
:1017E0001916ACF3E4CF20913603893F29F4121681
:1017F000F4F610923603DBCF8A3F19F427FFD7CFD8
:10180000F8CF209137038B3F29F427FFD0CF1092D8
:101810003703CDCF8C3F19F41216CCF3C8CF843FD9
:1018200031F4809133038E7F80933303C0CF853FA3
:1018300021F4809133038D7FF7CF863F21F480918F
:1018400033038B7FF1CF873F21F480913303877F70
:10185000EBCF883F21F4809133038F7EE5CF8D3F1E
:1018600031F480912C038E7F80932C03A0CF8E3F88
:1018700021F480912C038D7FF7CF8F3F09F097CF14
:1018800080912C038B7FF0CF089580912C0380FFF3
:101890000CC06091150170E0759567957595679519
:1018A0006115710549F1862F089581FF06C0609189
:1018B000150170E075956795F3CF6091150182FD74
:1018C0000BC090912B039923A1F06091140180919A
:1018D0001501961738F0682F70E06038710500F335
:1018E0008FE70895899FC001112470E00E94E935B7
:1018F000F4CF61E070E0D7CF81E0089580912C03B0
:101900006091AC037091AD0380FF16C02091170168
:10191000269FC001279F900D1124BC0176956795E5
:10192000769567956038710508F043C061157105BB
:1019300009F441C0862F089581FF0BC02091170143
:10194000269FC001279F900D1124BC0176956795B5
:10195000E9CF82FF09C0809117019B01829FB001EE
:10196000839F700D1124DECF20912D032223D1F20D
:101970009091160180911701482F50E0291748F0E7
:10198000CB01849FB001859F700D949F700D112431
:10199000C9CF289F90011124269FA001279F500D99
:1019A000369F500D1124692F70E0CA010E94D53571
:1019B000B9CF8FE7089581E00895803F31F40E9408
:1019C0007E0C8195809335030895813F19F40E9420
:1019D0007E0CF8CF823F31F40E947E0C819580937B
:1019E00034030895833F19F40E947E0CF8CF893F99
:1019F00029F40E94450C8093360308958A3F21F410
:101A00000E94450C8195F7CF8B3F31F40E94450C25
:101A100081958093370308958C3F19F40E94450CFB
:101A2000F8CF843F31F48091330381608093330396
:101A30000895853F21F4809133038260F7CF863F7C
:101A400021F4809133038460F1CF873F21F48091AA
:101A500033038860EBCF883F21F4809133038061AA
:101A6000E5CF8D3F31F480912C03816080932C036E
:101A700008958E3F21F480912C038260F7CF8F3F31
:101A8000B9F780912C038460F1CF9091760392FF97
:101A900006C0282F28712830F9F4877F846093FFCF
:101AA00006C0282F28712831F1F4877E84612091A7
:101AB000770320FF06C0382F38713830D9F4877F7C
:101AC000816021FF06C0282F28712831D1F4877E3C
:101AD000816194FD877E0895282F24712430F9F6C2
:101AE0008B7F8860DCCF282F2471243101F78B7E17
:101AF0008861DDCF382F3171313019F78E7F8860E2
:101B0000E0CF282F2171213121F78E7E8861E1CF2E
:101B1000CF93DF93EC0182389105B1F108F040C01A
:101B20008133910509F49DC048F58932910509F486
:101B30008DC08A9709F49CC0C11521E5D20708F031
:101B4000C3C0C11530E5D30708F01BC1C83ED1059D
:101B500008F0A3C0C13ED10588F5C83AD10508F008
:101B60008EC0C53AD10508F004C1C130D10531F1AC
:101B7000209721F1C430D10508F545C08533910582
:101B800009F45FC0C997C1F680917603837009F0AC
:101B900049C18091770383FF11C0C9E2D0E00EC034
:101BA000833E910599F170F4803E910501F1823EEA
:101BB000910511F68091760382FD21C0CE01DF915F
:101BC000CF910895863E910561F1873E910571F1AF
:101BD000843E910509F0B0CF8091770381FFEECF6D
:101BE00080917603C7EED0E084FD0DC0E7CF8091F1
:101BF000760380FD33C09091770390FFDFCFC3EE73
:101C0000D0E084FFDBCFD0E0C0E0D8CF8091760376
:101C100082FD05C19091770390FD04C184FFCECF72
:101C2000F2CF8091760383FDDDCFC8CF809176031C
:101C300083FDFBC09091770391FFF0CFC4EED0E01D
:101C4000BDCF8091760385FFB9CFA7CF8091760372
:101C500085FDEEC08091770383FFB0CFC9E3D0E06C
:101C6000ADCF8091760386FFA9CFCAE2D0E0A6CFA0
:101C70008091760386FFA2CFC1E3D0E09FCFCF3B18
:101C8000D10508F6C85AD0E0CC0FDD1FCD5BDD4F83
:101C90000990D881C02DD46491CFC11540E2D407FA
:101CA00058F4C11581E0D80708F088CFC03FD105AE
:101CB00008F4A9CFD06582CFC11590E4D90708F404
:101CC000A2CFDF70D06A7ACFC11525E5D20700F523
:101CD000C11534E5D30708F08AC0C11543E5D40720
:101CE00008F071C0C11582E5D80708F467C0CE01BD
:101CF0008370992721E030E002C0220F331F8A95BC
:101D0000E2F7C695C69580E2C89FE001112452C053
:101D1000C11599E5D907A8F4C11528E5D20708F03F
:101D20006BC0C11536E5D30708F06DCF8C2F0E942C
:101D3000450DC82FD0E0DC2FCC27CC27DF71D06237
:101D40003DCFC1154AE5D40708F45BC0CE019056DB
:101D50008115904208F057CF8D2F8F710E94450D4D
:101D600090E0982F882788279F719C012C2BE901F0
:101D7000E6CFC55AD0E0C05CDD4FC881D0E0D0646A
:101D80001DCFCE01E4E096958795EA95E1F7837043
:101D90002C2F26952695237040E2249F9001112434
:101DA000382B8C2F8370C1E0D0E002C0CC0FDD1F38
:101DB0008A95E2F7C22BD32BDC6800CFDC2FCC272F
:101DC000C16FD06AFBCECE018370992721E030E04D
:101DD00002C0220F331F8A95E2F7C695C69590E29E
:101DE000C99FE0011124C22BD32BDA68E7CEDC2F88
:101DF000CC27C46FD06AE2CEDC2FCC27C06FD06A6C
:101E0000DDCE8C2F8F700E94450D34E0D695C7959E
:101E10003A95E1F7CF709C2FEC01D069CFCEC2EE9E
:101E2000D0E0CCCEC0EED0E0C9CEC6EED0E0C6CE7B
:101E3000C5E3D0E0C3CE80910103882331F0109236
:101E40000103109200031092FF020895CF93C82F50
:101E50008091770382FF0CC0809101038C1741F0C1
:101E60000E940F0A909300038093FF02C093010326
:101E7000CF9108958095909178039823909378035B
:101E800008951092F6021092F5021092F40208954D
:101E90008091A6039091A703892B89F00E940F0AD5
:101EA0002091FF0230910003AC01421B530B81E0F3
:101EB0002091A6033091A7034217530708F480E04E
:101EC000817008952091F3029091C20256E0291387
:101ED00002C080E0089530E0529FF001539FF00D62
:101EE0001124ED53FD4F7181761306C07081781374
:101EF00003C07281741304C02F5F3F4F2770E7CF78
:101F000081E00895452B39F0682381E06F3F09F0A7
:101F100080E08170089581E0FCCF8091F302909180
:101F2000C202981301C008958F5F8770FACF98306E
:101F300080F5883070F548E0949F90011124820F5D
:101F4000932F911D682F677023E0969587952A95AA
:101F5000E1F7FC01EE0FFF1FE80FF91FEC55FD4FF5
:101F600050E040E080E0219130E0062E02C036953E
:101F700027950A94E2F721703327042E01C0220F1F
:101F80000A94EAF7822B4F5F5F4F4330510559F7B0
:101F9000089580E00895983098F5883088F548E0F5
:101FA000949F90011124820F932F911D282F277049
:101FB00041E001C0440F2A95EAF723E09695879502
:101FC0002A95E1F7FC01EE0FFF1FE80FF91FEC5512
:101FD000FD4F90E080E070E05191DF0111979B018F
:101FE000082E02C0369527950A94E2F721702195B4
:101FF0002527242325272C9301968330910561F70B
:10200000089592959F70963091F058F4925F9F706A
:10201000923058F4803F19F030F4883E30F481E07B
:1020200008959A5FF4CF843FD1F380E00895883E0D
:10203000B0F3813FD1F7F3CF8091E903843021F1F0
:102040001092D10388E190E020E40FB6F894A895AF
:10205000809360000FBE2093600083B7817F84600F
:1020600083BF83B7816083BF7894889583B78E7F61
:1020700083BF0FB6F894A895809160008861809323
:102080006000109260000FBE0895829590E09C0160
:10209000220F331F220F331F2C7C95958795959522
:1020A00087958373282B30E0C901880F991F8A7A9E
:1020B000359527952575822B08959C013A95211514
:1020C0003F4150F5FC01EE27F170BC0166277270AC
:1020D000AC01442754709C012227387094FF0EC035
:1020E00080E1EF2B09F480E0672B09F08062452B3B
:1020F00009F08064232B89F08068089581E0EF2B3C
:1021000009F480E0672B09F08260452B09F08460B8
:10211000232B19F08860089580E008959FB7F89404
:102120001092DA039FBF9091E903943009F048C000
:102130002091E9002F703091EC00932F917030FDC9
:1021400090E8922B25E02093E9002091EB0020FFFE
:1021500034C02091EE0027FF30C02091D903222304
:1021600021F02091E80025FF28C01092D90326E035
:102170003091E80035FF14C08093F1008091E800B1
:1021800085FD27C08091E80080FFFCCF8091E800AA
:102190008E778093E8009F709093E90080E0089527
:1021A0003091E903343049F43091EB0035FD05C03E
:1021B000215041F481E08093D9039F709093E9000E
:1021C0008FEF0895EFE9FFE03197F1F700C00000CD
:1021D000CFCF8FB7F89421E02093DA038FBFDBCF06
:1021E0008093D6037093D8036093D7038091E9035B
:1021F0008430F9F48093E9008FEF9091E8008150EA
:1022000095FD06C095ED9A95F1F700008111F5CF87
:102210008091E80085FF0DC050E040E063E070E091
:1022200086ED93E00E94BC088091E8008E77809351
:10223000E8000895BC0184E00E94F0100895BC01FC
:1022400083E00E94F01008959C0184E08093E900EF
:102250009FEF8091E800915085FD06C085ED8A953D
:10226000F1F700009111F5CF8091E80085FF0CC0D7
:1022700050E040E066E070E0C9010E94BC08809137
:10228000E8008E778093E8000895CF93DF93EC0108
:1022900081E08093E9008FEF9091E800815095FDF7
:1022A00006C095ED9A95F1F700008111F5CF809168
:1022B000E80085FF14C050E040E068E070E0CE0127
:1022C0000E94BC088091E8008E778093E80088E047
:1022D000FE01AFEDB3E001900D928A95E1F7DF9139
:1022E000CF91089581E08093E00080E28093D80050
:1022F0001092C9008FE19EE40197F1F700C0000041
:1023000087E090EBDC018093F5039093F603A093B4
:10231000F703B093F80388E19CE00FB6F894A89512
:10232000809360000FBE90936000FFCF019708F488
:102330000895EFE9FFE03197F1F700C00000F6CF14
:1023400080916D0380FD0AC0E0E4F3E01182108209
:102350001282339653E0ED36F507C1F7549A3BB13C
:102360003F7E2BB120614FB7F89480E493E0FC01ED
:102370005191CF0168E02BB9000000C057FF3BB975
:10238000550F000000C000C000C03BB900C06A95F6
:1023900091F7F3E08D369F0751F74FBF8FE594E03B
:1023A0000197F1F700C000000895EF92FF921F938C
:1023B000CF93DF93EC0180E4E82E83E0F82E10E069
:1023C0008C8197014091700360916F03810F0E948F
:1023D0002C0B1F5E83E0E80EF11C1F3F89F70E9463
:1023E000A0119A818C8190FF08C08F5F8C83DF9150
:1023F000CF911F91FF90EF9008958150F7CF90916A
:102400006D0390FF0CC0E0E4F3E0818360834283BE
:10241000339693E0ED36F907C1F70E94A0110895B5
:10242000A3E0B0E0E6E1F2E10C9418368C01DC01A7
:102430001496EC91F0E0E556FB4F449180916D03CA
:1024400080FF0EC09E012F5F3F4F60916F03809110
:102450006E030E942C0B4B8169818A810E94FF11BF
:10246000F80184818F5F84832396E4E00C943436F2
:102470000F931F93CF93DF938091030390910403F5
:102480002091290330912A033093040320930303FE
:1024900090932A0380932903D0E0C0E001E010E08C
:1024A00060E030E020E085B1422F807C8C2B862BD1
:1024B00085B9EAE1EA95F1F700C0E0910303F091F4
:1024C0000403EC0FFD1F808190E0022E02C0959561
:1024D00087950A94E2F780FD2F9AF5E3FA95F1F7D4
:1024E000000076B52E988AE18A95F1F700C0F801D0
:1024F00002C0EE0FFF1F4A95E2F7AF01809129035A
:1025000090912A03FC01EC0FFD1F4F9B71C0409579
:1025100050814523408346B5471B463058F0E09133
:102520000303F0910403EC0FFD1F40818C0F9D1FEE
:10253000FC014083FAE1FA95F1F700C02F982E9A3A
:102540008BE291E00197F1F700C000002F5F3F4F51
:10255000685F2830310509F0A6CFA0912903B0911A
:102560002A03AC0FBD1FE0910303F0910403EC0FAD
:10257000FD1F9C918081981751F00E94030A60937F
:102580009C0270939D0280939E0290939F022196DD
:10259000C830D10509F084CF8091E903853021F05E
:1025A0008091E90381111EC040919C0250919D02CF
:1025B00060919E0270919F022FB7F8948091D20390
:1025C0009091D303A091D403B091D5032FBF841B66
:1025D000950BA60BB70B81319742A105B10510F001
:1025E0000E941C1081E0DF91CF911F910F910895FF
:1025F0005081452B8FCF809114011F928F93809132
:1026000015011F928F93809116011F928F938091D5
:1026100017011F928F93809118011F928F938091C1
:1026200019011F928F9383ED9BE09F938F930E94DC
:1026300063088DB79EB70E960FB6F8949EBF0FBE77
:102640008DBF0895883228F58E3108F072C08B3026
:1026500041F130F4873009F4CFC082E39DE0E0C05F
:10266000833109F45FC08431C1F784E59DE00E94A5
:10267000CA078091A303882309F4FEC01092A30324
:102680001092A2031092A1031092A00310929F0334
:1026900020C08F3409F4C7C0D8F5893231F38833AC
:1026A000E1F687E59DE00E94CA070E94FB121F9297
:1026B00081E08F931F9288E08F9380E59CE09F9349
:1026C0008F930E9463080F900F900F900F900F90C0
:1026D0000F902091A303222309F4C9C080919F0386
:1026E0009091A003009711F483E291E09F938F9360
:1026F0001F922F9380E29DE09F938F930E94630827
:102700000F900F900F900F900F900F9081E0089511
:10271000813509F49CC008F49CC0823509F09DCF36
:1027200081E082C086E49DE00E94CA070E94FB12FD
:10273000D0CF8D518093A303833009F442C058F465
:102740008130C1F08230A1F11092A30383E49DE0B7
:102750000E94CA071BC0853009F445C0D8F18630F5
:1027600099F784E191E09093A2038093A1038BE613
:1027700091E008C089E191E09093A2038093A103C6
:1027800087E291E09093A00380939F038091A3033D
:10279000882309F49ECF1F928F938FE39DE09F9330
:1027A0008F930E9463080F900F900F900F9091CF1E
:1027B00088E191E09093A2038093A10380E391E0EC
:1027C000E1CF87E191E09093A2038093A1038CE392
:1027D00091E0D8CF86E191E09093A2038093A1038A
:1027E00089E491E0CFCF85E191E09093A2038093BB
:1027F000A10388E591E0C6CF81E08093190184E1CF
:10280000809318018AE0809317018EE1809316016E
:1028100088E08093150188E28093140185E39DE0B0
:102820000E94CA0756CF8AE0E091A103F091A2036B
:102830003097D1F02081082E000C990B820F911D4A
:102840008F3F910541F03CF08FEF808307C08FEF01
:10285000EBCF86EFE9CF97FFF8CF108280811F92F0
:102860008F938CE29DE09BCF89E29DE0D9CF8CE1F4
:102870009DE00E94CA074ACF80E0089580919E03A0
:1028800083FF7EC088E793E00E94CA0780913303EC
:102890001F928F9383E793E09F938F930E94630827
:1028A00081E793E00E94CA0780913403282F082E05
:1028B000000C330B3F938F938EE693E09F938F939F
:1028C0000E9463088CE693E00E94CA07809135035A
:1028D000282F082E000C330B3F938F9389E693E04B
:1028E0009F938F930E94630887E693E00E94CA0734
:1028F00080913603282F082E000C330B3F938F93C3
:1029000084E693E09F938F930E94630882E693E0AE
:102910000E94CA0780913703282F082E000C330B22
:102920003F938F938FE593E09F938F930E9463086B
:102930008CE593E00E94CA0780912D031F928F932C
:1029400089E593E09F938F930E94630887E593E066
:102950000E94CA0780912C031F928F9384E593E015
:102960009F938F930E94630881E593E00E94CA07BA
:102970008DB79EB74C960FB6F8949EBF0FBE8DBF15
:102980000E940F0A9C019091340380913503982B8B
:1029900021F03093310320933003909136038091DE
:1029A0003703982B21F030932F0320932E03E091CF
:1029B000CD03F091CE03309749F082E0809332034B
:1029C0000480F581E02D82E393E0099508950F934B
:1029D0001F93CF93DF9304EA13E0C7E2D1E0CE0167
:1029E0000E947436F80181938F012196CB34F1E077
:1029F000DF07A9F7C5EAD6E0FE018591949100971B
:102A000011F0FC0109952C96F7E0C13ADF07A1F718
:102A1000DF91CF911F910F9108950F931F93CF9343
:102A2000DF93823038F5683028F5483018F520E11A
:102A3000629F8001112450E0440F551F040F151FA1
:102A400030E8839FC0011124080F191FC801879621
:102A50000E947436C82FD0E0DC2FCC27C80188969E
:102A60000E9474369E01282BC901DF91CF911F91DE
:102A70000F91089590E080E0F8CF462F20917403E5
:102A800030917503232B99F4703F39F4603F79F44A
:102A900080917203909173030895823040F47830EE
:102AA00030F4683020F4672F0E940D15089590E0EF
:102AB00080E00895CF92DF92FF920F931F93CF9300
:102AC000DF936C010091F40380910203082BC7E0AF
:102AD000D0E010E0FC2EC8010C2E02C09595879521
:102AE0000A94E2F780FD0CC02197A0F7F12C8F2DFE
:102AF000DF91CF911F910F91FF90DF90CF900895BC
:102B0000B6018C2F0E943D150E94880D019761F33C
:102B1000EECFCF93DF93EC010E945A15BE010E94C5
:102B20003D150E94880DDF91CF910895FC018081B1
:102B300091810E9489150E9401100895A5E0B0E0DE
:102B4000E4EAF5E10C94193649835A8389819A8124
:102B5000662399F0222389F00E945A15182F682FB6
:102B600089819A810E94CB0F69817A81812F0E948D
:102B70003D152596E3E00C9435360E94970F182FEB
:102B8000F3CFFC01262F40815181628173818481C2
:102B90000E949E15089583E290E00E947436883466
:102BA00089F484E290E00E9474368F3B59F485E208
:102BB00090E00E94743691E08D3B09F090E0892FFF
:102BC0008170089580E0FCCFCF9384E090E00E9474
:102BD0007436C82F82E290E00E947436982F8C2FB2
:102BE000CF910895DB01FC01329625913491421773
:102BF000530758F0FC01349665917491A901CD01F9
:102C00000E94643690E080E008958FEF9FEF089572
:102C10000F931F93CF93DF9304EA13E0C7E2D1E051
:102C2000CE010E947436F80161918F01681719F086
:102C3000CE010E9488362196CB34F1E0DF0781F780
:102C4000DF91CF911F910F910895DA019C012E5FC2
:102C50003F4FF90145915491F90125913491A21703
:102C6000B30758F0FC013496859194910E94643624
:102C70000E94081690E080E008958FEF9FEF08957E
:102C8000CF93DF93CBE4D1E060E0CE010E948836A1
:102C90002196C11584E0D807B9F7DF91CF91089547
:102CA0001F93CF93DF93122F8230E8F46830D8F46B
:102CB0004830C8F420E1629FE001112450E0440F45
:102CC000551FC40FD51F20E8829FC0011124C80FD3
:102CD000D91F632FCE0187960E948836612FCE01BF
:102CE00088960E948836DF91CF911F910895CF93E7
:102CF000C82F6FEF811168E483E290E00E9488366C
:102D00006FEFC1116FEB84E290E00E9488366FEFA5
:102D1000C1116DEB85E290E00E948836CF91089555
:102D2000CF93C92F682F84E090E00E9488366C2FE3
:102D300082E290E00E948836CF910895CF92DF9290
:102D4000EF92FF926B017C010E941D0BB701A6015F
:102D500088E090E00E949A36FF90EF90DF90CF904D
:102D60000895A3E0B0E0E7EBF6E10C941636082FE7
:102D7000F62E142FE22E80916D0380FF28C0E82FDD
:102D8000E695F0E0EF58FD4F908190933E038E7FE3
:102D9000823009F59E012F5F3F4F802F0E942C0B40
:102DA0004B8169818A810E94FF1100936E03F0922A
:102DB0006F0310937003EE2051F060916D037091DA
:102DC0006E0380916F03909170030E949E1623966C
:102DD000E6E00C943236923019F410917003E5CF8E
:102DE000963019F700916E03E0CFEDE6F3E04381F2
:102DF00021E1421B08F440E021E0628181810E94D0
:102E0000B1160895EDE6F3E0438121E1420F08F4A5
:102E10004FEF21E0628181810E94B1160895EDE6B5
:102E2000F3E0628121E1621B08F460E021E043816C
:102E300081810E94B1160895EDE6F3E0628121E1FF
:102E4000620F08F46FEF21E0438181810E94B11687
:102E50000895EDE6F3E0818121E0438162818850AD
:102E60000E94B1160895EDE6F3E0818121E04381EF
:102E70006281885F0E94B116089580917103882352
:102E800019F081508093710360916D0370916E030E
:102E900080916F03909170030E949E160895809117
:102EA0007103833018F48F5F8093710360916D0319
:102EB00070916E0380916F03909170030E949E1633
:102EC000089590916D0390FF2CC0917081112AC0DC
:102ED000926090936D03662351F060916D03709141
:102EE0006E0380916F03909170030E949E16609113
:102EF0006D03669570E041E050E08CE091E00E9447
:102F00004A36892BB1F010923F0381E080933B0356
:102F100020E04091700360916F0380916E030E94E6
:102F2000B11608958C3010F09661D3CF880F982B8E
:102F3000D0CF81E080933F030E940F0A9093390322
:102F400080933803E2CF80916D038695815009F418
:102F50008BE061E00E946117089580916D03869572
:102F60008F5F8C3008F081E061E00E946117089566
:102F700090916D0390FF08C09695981728F09617CA
:102F800018F40E94AD17089561E00E94611708953A
:102F9000EDE6F3E083E0808311828FEF8283838309
:102FA000148260817181828193810E949E160895AE
:102FB000809178039091F303892B80939402809100
:102FC0000103882309F18091A6039091A703892B1F
:102FD00029F00E94480F81110E941B0F80919402DA
:102FE00090910103892B8093940220E086E992E07E
:102FF000FC013191CF0131112F5FF2E08C399F0735
:10300000B9F721110E941B0F48E050E067EF72E012
:1030100084E992E00E945736892BA9F088E0E4E920
:10302000F2E0A7EFB2E001900D928A95E1F7E0910E
:10303000CD03F091CE03309731F00280F381E02D83
:1030400084E992E00995089580911101877F80932A
:1030500011019091F3039D7F9093F30384FF08C0C7
:103060008F7E809311018091780382608093780332
:103070008091110185FF08C08F7D8093110180919F
:1030800078038062809378030E94D817089590E0B7
:1030900080E00E944B0A90E080E00E94350A109286
:1030A000F3030E94D81786E0E2E3F3E0DF011D920C
:1030B0008A95E9F710922D0310922B0310922C039E
:1030C0000E943E1408958093F4030E9447180895C7
:1030D0008091F403982F9670963021F488600E94B6
:1030E00063180895877FFBCF21E030E001C0220FF5
:1030F0008A95EAF720958091F40382230E94631851
:1031000008959091F602809589238093F602282FE6
:10311000277091F4282F082E000C330B92171306FA
:1031200059F09091770392FF07C085958595859515
:103130000E9474180E94410F08959091770392FBAA
:10314000222720F9281769F080FB92F990937703E2
:1031500080917603909177030E94901682E00E94FE
:103160008118089521E030E001C0220F8A95EAF726
:103170008091F403822B0E94631808959091770345
:1031800092FF10C098E0899F90011124622B6093F8
:10319000F6020E94B2180E940F0A9093F5028093E3
:1031A000F40208950E94B2180895809302030E94C9
:1031B0004718089510927803E6E9F2E086E0DF010F
:1031C0001D928A95E9F70E9447180895AAE2B0E097
:1031D000ECEEF8E10C9419368BEE93E02091F100BF
:1031E000DC012D93CD01B3E0833F9B07B9F78091BC
:1031F000EC03833009F472C0B8F4813009F449C09B
:10320000823009F4B3C08091E80083FF9CC28091B2
:10321000EB039091EC039A3008F095C2E92FF0E0AF
:10322000E254F94C0C94FD358A3009F48EC08B3091
:1032300009F471C0893039F78091EB03813219F7B5
:103240008091EF039091F003009711F00297D9F667
:103250008091E800877F8093E8008091E80082FFFA
:1032600038C09091F3008091F200029731F4809180
:10327000F100813011F0863021F48091F1008093CB
:10328000DE038091E8008B778093E8000E94E608D7
:10329000BACF8091EB03813A09F0B5CF8091E80075
:1032A000877F8093E8008091EF039091F003892B52
:1032B00061F468E08FED93E070E00E9492098091E4
:1032C000E8008B778093E8009ECF60E090E080E09C
:1032D000F3CF8091E9038111C0CF95CF8091EB03AB
:1032E000813A09F090CF8091EF039091F003892B00
:1032F00009F089CF8091E800877F8093E800809172
:10330000E80080FFFCCF80911A018093F10080914A
:10331000E8008E77B9CF8091EB03813209F073CF4B
:103320008091EF039091F003892B09F06CCF80918D
:10333000E800877F8093E8000E94E6088091ED0313
:1033400080931A010E94DA185ECF8091EB038132DC
:1033500009F059CF8091E800877F8093E8000E94B0
:10336000E6088091EE038093DD034DCF8091EB035F
:10337000813A09F048CF8091E800877F8093E80088
:103380008091E80080FFFCCF8091DD03BECF8038C4
:1033900099F0823809F0D7C18091EF038F708730A0
:1033A00008F0D1C18093E9008091EB0085FB88276C
:1033B00080F91092E90006C08091E7039091E8033C
:1033C000911182609091E800977F9093E80080933C
:1033D000F1001092F1008091E8008E77B0C188234F
:1033E00009F49EC1823009F0AEC18091ED038111D4
:1033F000A1C18091EF038F702FEF280F263008F0C6
:10340000A2C18093E9002091EB0020FF93C193308B
:1034100031F48091EB0080628093EB008BC190913E
:10342000EB0090619093EB0021E030E001C0220FAF
:103430008A95EAF72093EA001092EA008091EB0067
:103440008860EACF81117FC11091ED031F778091D1
:10345000E3008078812B8093E3008091E800877FF0
:103460008093E8000E94E6088091E80080FFFCCF8E
:103470008091E30080688093E30082E0111183E093
:103480008093E90360C18058823008F05CC12091CC
:10349000ED033091EE032C3DE3E03E07A1F583E020
:1034A0008A838AE289834FB7F894DE01139620E07D
:1034B0003EE051E2E32FF0E050935700E49120FF0B
:1034C00003C0E295EF703F5FEF708E2F90E0EA301F
:1034D000C0F0C7968D939D932F5F243159F74FBF4E
:1034E0008091E800877F8093E8006AE270E0CE0177
:1034F00001960E9492098091E8008B778093E80002
:1035000022C1C096E7CF8091EF039091F003432F43
:1035100055274330510509F44AC078F5413051052B
:1035200009F485C08BE790E0E0E8FDE0423051050A
:1035300009F009C12091E800277F2093E80020913D
:10354000F1033091F2038217930708F49C0140E0E5
:103550002115310509F070C041116EC08091E8005D
:1035600082FDC9CF8091E903882329F2853019F2C1
:103570008091E80083FFF2CFBECF4132510509F4BC
:1035800047C04232510509F0DEC08430910508F091
:10359000DAC0FC01EE0FFF1FEF57FD4F0190F081E5
:1035A000E02D83589D4FDC018C9190E01DC03327A6
:1035B00021303105E9F02115310579F0223031054E
:1035C000F9F02330310509F0BEC0EDE0FEE0E491F2
:1035D0008E2F90E0EDE0FEE007C0E3E5FEE0E49131
:1035E0008E2F90E0E3E5FEE0009709F4ACC0A2CF97
:1035F000E1E4FEE0E4918E2F90E0E1E4FEE0F4CF20
:10360000EBE2FEE0E4918E2F90E0EBE2FEE0ECCF07
:103610008430910508F097C0880F991FFC01E75787
:10362000FD4F0190F081E02D89E090E083CF82E1B1
:1036300090E0EBEFFDE07ECF8091E903882309F471
:103640005ACF853009F457CF8091E80083FD53CFDE
:103650008091E80082FD82CF8091E80080FF78CFE2
:103660009091F3008091F2002115310519F0883016
:10367000910550F041E0089709F040E08091E800A2
:103680008E778093E80064CF44914093F1003196A7
:10369000215031090196E8CF803809F054C080915B
:1036A000E800877F8093E8008091EA038093F1002F
:1036B00092CE811148C01091ED03123008F043C042
:1036C0008091E800877F8093E8001093EA030E94CE
:1036D000E608112311F084E005C08091E30087FD26
:1036E000FACF81E08093E90342E061EC81E00E943F
:1036F000050942E261EC84E00E94050942E261ECC6
:1037000082E00E94050942E260EC83E00E94050924
:1037100042E261EC85E00E9405098091E90313C053
:103720008091ED03813079F481E0933009F080E0FD
:103730008093E8031092E9008091E800877F8093EE
:10374000E8000E94E6088091E80083FF0AC08091AB
:10375000E800877F8093E8008091EB00806280938F
:10376000EB00AA96E3E00C943536CF93C82F1F9256
:103770008F9387E69DE09F938F930E94630881E07B
:1037800001C0880FCA95EAF70E94D5180E94DA187E
:103790000F900F900F900F90CF910895E4EAF3E00F
:1037A000128E138E8FEA90E09183808325E0248F20
:1037B00088E893E1938382838AE090E09583848311
:1037C00044E150E05783468368E070E0718760878A
:1037D000938782874EE150E0558744879787868795
:1037E00040E550E0518B408B738B628B68E270E058
:1037F000758B648B62E370E0778B668B68EC70E0AE
:10380000718F608F158E978F868F51A340A322A34F
:103810000E9408160E94DA1810927703109276031D
:10382000E7E7F3E080818460808380917603909164
:1038300077030E9490160E94E71408958F929F923A
:10384000AF92BF92DF92EF92FF920F931F93CF93AD
:10385000DF93809012019090130181E090E09093AB
:103860001301809312018BE9E82E85E0F82ED12C0C
:103870008701C0E013C0F501259134914D2F6C2FC5
:103880008D2D0E94501682E0A80EB11CDF5FD8304B
:1038900091F7005F1F4FCF5FC83019F05801D0E09B
:1038A000EACF80E8E80EF11C81E0D81619F0DD249B
:1038B000D394DECF0E94CE1B90921301809212010E
:1038C000DF91CF911F910F91FF90EF90DF90BF900C
:1038D000AF909F908F90089580E00E94771660E0EF
:1038E00086E290E00E9488360E941E1C0E944016CC
:1038F00081E00E9477160895CF92DF92EF92FF92B7
:103900008FEF9FEF4430510508F46AC0FB01C0807F
:10391000D180E280F3800E94DA1880917603C0FAA9
:1039200080F9B701A601769567955795479540FBB5
:1039300081F9B701A60122E07695679557954795DD
:103940002A95D1F740FB82F9B701A60133E07695BD
:103950006795579547953A95D1F740FB83F9B7019D
:10396000A601E4E07695679557954795EA95D1F7D6
:1039700040FB84F9B701A601F5E076956795579568
:103980004795FA95D1F740FB85F9B701A601A6E066
:103990007695679557954795AA95D1F740FB86F997
:1039A000B701A601B7E07695679557954795BA9503
:1039B000D1F740FB87F98093760380917703D0FAA3
:1039C00080F9D1FACC24C0F8C0FA81F9809377034A
:1039D00080917603909177030E94901690E080E0AA
:1039E000FF90EF90DF90CF9008950E94DA182FEFAC
:1039F00084E39CE0215080409040E1F700C000004B
:103A000088E19CE00FB6F894A895809360000FBE03
:103A100090936000FFCF882341F080959091F3034D
:103A200089238093F3030E94D8170895882339F0DF
:103A30009091F303982B9093F3030E94D817089565
:103A4000882321F00E943A0F0E94D81708958823F6
:103A500039F090917803982B909378030E94D817AF
:103A600008958823C9F19CEF980F913A78F4E6E91C
:103A7000F2E09191891303C0DF0111971C9292E04B
:103A8000EC39F907B1F70E94D817089590E2980F22
:103A9000983050F4877091E001C0990F8A95EAF749
:103AA000892F0E943A0FEFCF9BE5980F933028F4AF
:103AB00090E080E00E944B0A089598E5980F9731B6
:103AC00028F490E080E00E94350A0895803F20F0BD
:103AD0000E94C20B0E943E140895CF93DF93EC0125
:103AE0000E94311DCE010E945D109E01205E3109B1
:103AF0002830310510F0CD2B29F40E94201DDF91D4
:103B0000CF9108950E940B1DFACF68EE7EEF90E0F2
:103B100080E00E94A63660E082E090E00E94883655
:103B200060E083E090E00E9488361092020360E03B
:103B300084E090E00E94883664E082E290E00E9497
:103B4000883660E085E090E00E94883660E086E09C
:103B500090E00E9488366FEF87E090E00E94883600
:103B600040E050E0BA0188E090E00E949A3660E0C0
:103B70008DE090E00E94883640E050E0BA0188E194
:103B800090E00E949A3660E087E190E00E948836DB
:103B900040E050E0BA018CE190E00E949A3670E07B
:103BA00060E080E290E00E94A63640E050E0BA017A
:103BB00088E190E00E949A3680E00E9477160E9489
:103BC0006C1C40E050E0BA018FE090E00E949A3611
:103BD00040E050E0BA0183E190E00E949A360895F7
:103BE000EF92FF920F931F93CF93DF938B3109F4E2
:103BF00025C108F0B4C08B3009F4E1C008F086C0DC
:103C0000863009F4EFC048F4853009F4B6C084E387
:103C10009BE00E94CA0780E0F5C0873009F4F7C036
:103C20008830A9F783E090E00E9474361F928F934A
:103C30008FED98E09F938F930E94630882E090E05D
:103C40000E94743683FB992790F91F929F9382FB01
:103C5000992790F91F929F9381FB992790F91F92C2
:103C60009F93982F91701F929F931F928F9386E935
:103C700098E09F938F930E9463080E94E41593FB42
:103C8000222720F91F922F9387FB222720F91F92CA
:103C90002F9386FB222720F91F922F9385FB222743
:103CA00020F91F922F9384FB222720F91F922F9334
:103CB00083FB222720F91F922F9382FB222720F9D2
:103CC0001F922F9391FB222720F91F922F93292FC8
:103CD00021701F922F9381FB222720F91F922F938F
:103CE000282F21701F922F939F938F9387E997E03E
:103CF0009F938F930E9463088DB79EB78A960FB6E5
:103D0000F8949EBF0FBE8DBF81E07CC0803109F466
:103D1000ADC080F48E3009F07ACF90919E03892F48
:103D20008B7F92FF846080939E0382FF9CC08FE50F
:103D30009BE090C0863109F4A9C0893109F067CFB2
:103D400080E891E09F938F9386EC9AE09F938F9306
:103D50000E9463080F900F900F900F90D5CF8A327A
:103D6000D1F118F5873299F128F48E3108F44FCF4C
:103D70008D512EC0893209F04ACF82EA9BE00E9421
:103D8000CA078091120190911301892B09F4BCCFCD
:103D90000E94DA189FEF24E38CE09150204080408D
:103DA000E1F700C000000E947211833468F48A3386
:103DB00008F091C0853359F0883309F028CF8CEF93
:103DC00098E00E94CA07A0CF833409F020CF80E09A
:103DD0000E94B51B99CF82EC9BE00E94CA070E940B
:103DE000851D92CF80919E03807F80939E038FE9F3
:103DF0009AE00E94CA078EEB9BE00E94CA0781E00E
:103E000080939D03CDB7DEB7E6E00C9432369091F7
:103E10009E03892F8E7F90FF816080939E0380FF99
:103E200003C086E99BE0CDCF89E89BE00E94CA07EA
:103E300080919E03817F80939E0366CF90919E0325
:103E4000892F8D7F91FF826080939E0381FF08C040
:103E50008CE79BE00E94CA0780919E038160EBCFB4
:103E60008EE69BE0AECF8FE49BE0ABCF90919E03BC
:103E7000892F877F93FF886080939E0383FF03C011
:103E800083E49BE0E7CF86E39BE09BCF0E94030A9D
:103E9000162F072FF82EE92ED091DD03C0911A01BD
:103EA0000E94610AEF92FF920F931F931F92DF937C
:103EB0001F92CF931F928F9389EC9AE09F938F93D9
:103EC0000E9463088DB79EB70C960FB6F8949EBFFC
:103ED0000FBE8DBF19CF89537BCFCF93C82F8823B7
:103EE00009F45AC08CEF8C0F813A08F064C08091BD
:103EF0009D03813021F18823C1F0823009F449C04B
:103F000010929D03E6E9F2E0DF018D91C81709F4F4
:103F100045C082E0AC39B807C1F76C2F84E992E064
:103F20000E941B0A0E94D81737C080917803823202
:103F300049F78C2F0E94F01D81112EC0E3CF809194
:103F400078038232B1F3C431C9F048F4CB3059F070
:103F5000C031C1F081EB91E00E94CA0711C0C932A3
:103F600069F0C833B9F78FE99AE00E94CA0783EB7A
:103F700091E00E94CA0781E08170DECF10929D031C
:103F800080E0FACF82E080939D0388E30E942213B1
:103F9000F2CF8C2F0E942213CF9108958191C813E4
:103FA00003C0DF0111971C9282E0EC39F807B1F7EA
:103FB0000E94D817B2CF80E28C0F883068F4C770A7
:103FC00021E030E001C0220FCA95EAF78091780322
:103FD000822B80937803A6CFEBE5EC0FE33040F41F
:103FE000F0E0E05CFD4F808190E00E944B0AD4CF6E
:103FF000E8E5EC0FE73150F4F0E0EE0FFF1FED5B6A
:10400000FD4F808191810E94350AC6CFC03F20F2CA
:104010008C2F0E94DD0C0E943E14BECF1F93CF93C5
:10402000DF93182FC091C403D091C503893321F0C9
:10403000C091C203D091C303812F0E946D1F2097AE
:1040400039F4812F0E94311DDF91CF911F91089586
:104050008FE99FE00197F1F700C000002197EFCFB3
:10406000B0E0A0E0E6E3F0E20C941236EC018AE066
:10407000A82E2881222309F48FC02130C9F5998107
:104080008A81913021F422960E940E2005C0923040
:1040900029F422960E946D1F2196EBCF933021F4D4
:1040A00022960E94311DF8CF943011F02196F4CF62
:1040B000229630E020E0AE014F5F5F4F8053990BB6
:1040C0008A30910550F02150310930F38FE99FE09B
:1040D0000197F1F700C00000F6CFA29EB001A39EA9
:1040E000700D11249C01260F371F8981EA01E3CF4F
:1040F000E22FF0E0E957F14FB490822F8695869534
:10410000869590E0FC01E958F14FE4902770F12C7E
:10411000022E02C0F594E7940A94E2F731E0E3221C
:10412000FF24FC01E959F14FC490D12C022E02C0AA
:10413000D594C7940A94E2F731E0C322DD24FC0150
:10414000E95AF14F049110E002C0159507952A95A0
:10415000E2F701701127E114F10419F081EE0E94D9
:104160006D1FC114D10419F086EE0E946D1F8B2DB6
:104170000E940E20C114D10419F086EE0E94311D58
:10418000E114F10419F081EE0E94311D01151105B1
:1041900009F482CF8CE278CFCDB7DEB7EAE00C9499
:1041A0002E360F931F93CF93DF93C42FD22FFC0192
:1041B00082818823A9F04093CA030E940F0A90933A
:1041C000C9038093C803C77081E001C0880FCA95F6
:1041D000EAF70E94271DDF91CF911F910F9108955B
:1041E0001091CA03141336C08091C8039091C9037B
:1041F0000E94F4092091BC033091BD0382179307FC
:1042000048F5C0E2CD0F1D17B9F080E2810F88306C
:1042100040F4177081E001C0880F1A95EAF70E94F8
:10422000201DC83048F481E09D2F977001C0880F91
:104230009A95EAF70E94271D802F0E940E20C83011
:1042400050F6D77081E001C0880FDA95EAF70E9436
:10425000201DC1CFC77081E001C0880FCA95EAF761
:10426000F6CFCF93DF93EC010E945D109E01205E9C
:1042700031092830310510F0209741F40E94271DA4
:104280008C2F0E946D1FDF91CF9108950E94161D03
:10429000F7CF662329F02091F30322602093F303E4
:1042A0009C013056211540E2340720F0305E211584
:1042B000304108F499270E9431210895B0E0A0E030
:1042C000E4E6F1E20C9415367C018B01D42E80914A
:1042D000110182FF8CC0C0919B03D0919C03CE152D
:1042E000DF0521F0E114F10409F081C08091110192
:1042F0008B7F8093110181FD73C080919903909110
:104300009A03A801481B590B81E020910F013091BD
:1043100010014217530708F480E08170F82E809155
:104320001101F0FA81F980931101FE0183E0F69505
:10433000E7958A95E1F7EE71FF27E758FC4F20815A
:104340003181AE014F70552781E090E002C0880FA7
:10435000991F4A95E2F7FF2009F444C0822B932B62
:10436000918380838091780381FF08C0809111013F
:1043700080618093110182E00E943A0F809178035E
:1043800085FF08C08091110180628093110180E255
:104390000E943A0F6F2DCE010E944921DD2031F09D
:1043A0008091BF0385FF02C086FF3BC08091C2039E
:1043B0009091C3030E94961180919B0390919C035E
:1043C0009C013056211540E2340720F0305E211563
:1043D000304108F499270E946D1D0E9424181DC0C9
:1043E00081E09BCF8095909582239323B9CFC7011D
:1043F000992797013056211540E2340728F0305EA6
:104400002115304108F0C7010E946D1D80919B036A
:1044100090919C038E159F0501F310939A030093CE
:104420009903CDB7DEB7E7E00C943136A5E0B0E0F4
:10443000ECE1F2E20C941A369093730380937203CA
:10444000811520E2920730F40E9431212596E2E0A6
:104450000C94363680EF89838A8381E08B830E94B7
:104460000F0A8160782F9D838C8349815A816B81EB
:104470008D810E946B2CEACFA4E0B0E0E2E4F2E28E
:104480000C9410367C01FC01438154816181808150
:104490000E94820F8111D3C061E0C7010E94C11543
:1044A0008C01F7018281882309F478C7C801825101
:1044B0009F45409708F00DC78FEF93E00E94743638
:1044C0008111AEC06EEED62ED00E0BE411E0D110ED
:1044D00036C019821A821B821C8299249A94680120
:1044E0002FEFC21AD20AC8010E94743689831A8239
:1044F000882309F495C0813009F087C0580132E063
:10450000A30EB11CC6010E947436C82E8A8388236C
:1045100009F486C0C5010E947436D82E8FEF8C0D29
:104520008330D8F4580143E0A40EB11CDB82DD20B7
:1045300021F0CE0101960E9430208501D0CF0115D7
:10454000F4E01F0709F46CC0C8010E9474368111A1
:1045500001C0DA940F5F1F4FBACF8BEF8C0D833001
:1045600070F5C8010396DB825C01DD2031F3580150
:1045700054E0A50EB11C0E9474368C838823E9F2A6
:104580000B811C8101308FEF180710F0102F0027CE
:1045900096E0C91681F0E7E0CE1649F0C8010E9406
:1045A00016228091C2039091C3030E949611C80104
:1045B0000E94282DC2CFC8010E941622BECFF4E06F
:1045C000CF12BBCF580124E0A20EB11CC801039644
:1045D0000E947436DD2021F1882311F18150990B5E
:1045E000989E9001999E300D11244D2D4150550BF0
:1045F000CA01820F931F019708F49FCFEFE9FFE0F4
:104600003197F1F700C00000F6CFCE0101960E946D
:104610003020560192CF81E00E94B2180E946818A3
:104620008091F602877059F0F7018281882339F072
:104630008091770382FF03C082E00E948118249654
:10464000ECE00C942C3681E00E947418E7CF82E0F5
:10465000E3CF8091110181608093110171C6809137
:1046600011018E7F809311010E94241869C68091E8
:1046700011018F7E013E110531F0053E1105C1F497
:10468000809111018F7D809311018091110180FF34
:1046900066C6F70182810832110528F50E31110531
:1046A00008F074C00430110580F5811154C657C656
:1046B000C80190568115E0E29E0720F0905E8115BA
:1046C000904118F78091110182FF49C68091C10382
:1046D00081FD45C620E233E040E0B60190E080E095
:1046E0000E945E213CC60933110558F40D321105B4
:1046F00018F40B321105C9F69091BF0392FDD5CF86
:1047000008C004361105C1F3D0CF9091BF0394FDCA
:10471000CCCF882309F4A1C0909178038091010344
:10472000282F292B322F3D7FB1F110929C0310923C
:104730009B033091BF0331FD2EC0F80143E0F69595
:10474000E7954A95E1F7EE71FF27E758FC4F98018E
:104750002F70332781E090E002C0880F991F2A95BF
:10476000E2F7809590952081318182239323918374
:10477000808360E0C8010E944921809101038D7F00
:104780000E94260F82E00E9481184ACF9091BF03B9
:1047900093FD8BCFBECF36E0F701A0E2B3E00190EE
:1047A0000D923A95E1F71092220310922403109291
:1047B0002303A0909B03B0909C030A151B05B1F541
:1047C0003091BF0335FF32C04091110141FB992464
:1047D00090F841FF02C036FF29C0409199035091E3
:1047E0009A03B601641B750B4091BC035091BD0345
:1047F00064177507D8F491FF08C08091110180619A
:104800008093110182E00E943A0F8091780385FF26
:1048100008C08091110180628093110180E20E94A2
:104820003A0F692DC5010E944921FACE90911101DC
:1048300021FB91F9909311018D7F0E94260F109317
:104840009C0300939B03D0929A03C092990380919A
:10485000110184608093110195CF970140E0B6016A
:10486000C8010E945E21DCCE053F8CE5180709F4E3
:1048700062C008F45AC0063FECE51E0709F461C0A7
:10488000F7013281332309F495C51092CA0303302E
:10489000FDE51F0708F061C00A3F2CE5120730F460
:1048A000C80182509C45449708F063C00E94E415FB
:1048B000909377038093760302319CE5190709F4FE
:1048C00082C108F0D2C00930FCE51F0709F459C1C4
:1048D00008F09CC005303CE5130709F446C108F018
:1048E00083C003305CE5150709F437C108F039C10E
:1048F00080917603816002309CE5190709F4B2C00B
:1049000080917603909177030E9490160E94DA18A6
:1049100087CE07E225EE45EE68ED7CE53BC506E275
:1049200021EE40EE63EF7CE535C507E225EE44EE6F
:1049300064EF7CE52FC506E221EE42EE65EF7CE5F3
:1049400029C507E225EE46EE66EF7CE523C508E2C1
:1049500021E045EE69ED7CE51DC5053A4DE51407FE
:1049600009F4A4CF08F03AC001368DE5180709F420
:104970009DCF06319CE5190709F0FFC180917803AE
:10498000982F9A7A2091BE0320FF04C0482F4474C8
:1049900009F090E021FF04C0482F417109F090E038
:1049A00022FF04C0482F487809F090E023FF03C09D
:1049B000827209F090E0332309F42FC181E0911154
:1049C00001C080E08093A00269E2911165E384E96F
:1049D00092E00E941B0A0E94D81722CEC8018D5A6D
:1049E0009D45039730F662CF809176038062073051
:1049F000ECE51E07B9F18091760380610830FCE593
:104A00001F0780F18091760380642CC00D302CE567
:104A1000120709F4C0C090F4809176038E7F0B30AA
:104A20004CE51407F9F0809176038C600C305CE55E
:104A30001507C0F0809176038D7F14C00F308CE590
:104A4000180709F4B8C008F4AAC00031ECE51E0745
:104A500009F4B5C0809176038F7B0131FCE51F0717
:104A600009F04ECF809376034BCF0F3F2CE5120712
:104A700009F4B3C0A8F50A3F4CE5140709F479C05E
:104A8000C0F404318CE5180709F4B5C008F4A1C0DE
:104A90000531ECE51E0709F033CF8091760382FBE8
:104AA000992790F921E0922790FB82F990FB83F9F6
:104AB000D9CF0C3FFCE51F0709F475C008F45DC0B1
:104AC0000D3F3CE5130709F472C0809177038360C2
:104AD0000E3F4CE5140709F013CF8093770310CFF6
:104AE00001365DE5150709F491C090F401309DE5AC
:104AF000190709F489C008F474C060E00230FDE5CC
:104B00001F0709F0FDCE8EE090E00E948836F8CEB7
:104B10000D3A2DE51207E9F060F490917603892FA4
:104B20008E7F90FF8160053A4DE5140709F49ACF16
:104B3000E7CE0E3A5DE5150751F10F3A8DE51807FE
:104B400009F0DECE90917703892F877F93FF8860ED
:104B5000C4CF809177038860C0CF80917603826054
:104B600081CF8091760384607DCF809176038860C9
:104B700079CF809177038160B0CF80917703826095
:104B8000ACCF0E94DA188091760380686BCF809159
:104B90007703877FA2CF809176038B7F63CF80914D
:104BA0007603877F5FCF809177038E7F96CF80914A
:104BB00077038D7F92CF809176038F7E53CF809144
:104BC00076038F7D4FCF0E94DA18809176038F771E
:104BD00049CF80917603837F45CF809177038C7F87
:104BE0007CCF80917703982F909591708E7F892B41
:104BF00090FB81F972CF0E94DA1890917603892F89
:104C000097FB87F980582ECF61E07DCF9091760396
:104C1000892F8F7E94FF806125CF8091A002811122
:104C20000FC089E2E6E9F2E02CE932E091918913C4
:104C300003C0DF0111971C922E173F07B9F7CBCEA7
:104C400085E3F0CF073C9CE5190709F47AC008F426
:104C500073C0083CFCE51F0709F478C045EF56E136
:104C600062E077E1093C2CE5120709F0C5C30E9418
:104C7000160BD6CC0F3C3CE5130709F4D1CCB0F4AD
:104C80000C3C5CE5150709F470C008F469C00D3CE4
:104C9000ECE51E0709F46EC065E082E00E3CFCE521
:104CA0001F0709F0A9C30E94B817BACC063D2CE52E
:104CB000120738F46BE086E0013D3CE5130798F3FA
:104CC000AFCC0D35100709F4ABCC96C380916D03C2
:104CD00080FF1BC08E7F80936D0360916D03709188
:104CE0006E0380916F03909170030E949E16109244
:104CF0003F035FEF80E792E0515080409040E1F742
:104D000000C000000E94A0118BCC816080936D03D5
:104D100061E086950E94611783CC43EA57E16DEA12
:104D200077E1A5CF4DEA57E163EA77E1A0CF49E209
:104D300057E163E377E19BCF43E357E169E277E132
:104D400096CF4FE057E16CE177E191CF4CE157E12D
:104D50006FE077E18CCF42E057E165EF76E187CFF6
:104D60004DE357E16FE477E182CF4FE457E16DE324
:104D700077E17DCF61E081E0CDCF0A35EDE51E071B
:104D800071F158F401152CE5120791F00E3D1C4508
:104D900009F032C30E94851D09C00C354DE514078A
:104DA000A1F0F8F0073A1D4509F026C30E94F51C52
:104DB0000E94DA189FEFE4E3FCE09150E040F040FD
:104DC000E1F700C000000E9472118091770382FB1E
:104DD000882780F991E089270E949D180DC381E002
:104DE000FBCF80E0F9CFC8010E94970FD82E13C3E4
:104DF000202F2F70B22E802F807F19F0B29490EF69
:104E0000B922DD20B9F0BB2069F080E2810F883043
:104E100010F0811009C080917803B82AB09278030D
:104E20000E94D817812F59C08091F303B82AB092FD
:104E3000F303F6CF812F0E94311DBB2009F44FC030
:104E400080E2810F883010F0811004C08B2D0E9409
:104E50003A0F06C0B0948091F303B822B092F303E6
:104E60000E94D8173CC0302F3F70B32E802F807F18
:104E7000803219F0B29480EFB8228820F1F041E03E
:104E8000841609F4A9C0DD2009F4B2C0CC2009F4CD
:104E90007AC020E0F7014081518162817381848171
:104EA0000E949E158091C10381FDBCCFF7018581D1
:104EB00080FFB8CF8F70858366C08091770382FDB5
:104EC00042C0DD20D1F1BB2039F080917803B82AAF
:104ED000B09278030E94D81780E00E946D1F492D80
:104EE0004850550B4430510510F40E94610A812F3F
:104EF000902F0E9401108111CDC11092A302109237
:104F0000A202AA20A9F08091F60280FD11C0F7014B
:104F100012828595859585950E94B218C7010E94D9
:104F20003C228091F6028595859585950E9474189E
:104F300060E0C7010E94C11582CB80E00E94311D54
:104F4000BB2069F283CFDD2011F1C11004C0809134
:104F500001038B2919C051E0C51206C080910103DD
:104F60008B290E94260FBBCF8091C003823078F33B
:104F7000C812EDCF0E941B0F9091A1028B2D892B9F
:104F800089138093A1028B2D0E94271DA8CFC110E9
:104F900003C00E941B0F17C08091C00391E0C9128B
:104FA00016C0823008F49BCF809178038B2109F4DE
:104FB00096CF0E941B0F9091A1028B2D8095892383
:104FC00089138093A1028B2D0E94201D88CF8230EF
:104FD00000F3C812DECF83CF8091C603DD2021F01D
:104FE0008C1508F47CCFCFCFC81608F078CFEBCF64
:104FF000CC2049F3F9E38F1245C18091C40390910D
:10500000C5030E949611812F0E94311D68CF802F09
:1050100086958695837069F0813009F060CF812F85
:10502000902F9370D11002C090E080E00E94350A6A
:1050300056CF812F902F9370D11002C090E080E066
:105040000E944B0A4CCF812FDD2029F00E94DD0CFD
:105050000E943E1444CF0E94C20BFACF802F83706F
:1050600091F5D1103CCF412F429546954770440FA2
:10507000440F812F8F70042E01C0880F0A94EAF725
:10508000212F207114FF07C02FE030E001C0220F54
:105090004A95EAF72095302F3695369533703230A1
:1050A00069F050F440910203313029F0822B8423BF
:1050B0000E94D51814CF842B822BFACF282B8091F5
:1050C00002038227F5CF8695DD2011F0802F8170B5
:1050D000882309F404CF412F429546954770440F29
:1050E000440F812F8F70042E01C0880F0A94EAF7B5
:1050F000212F207114FF07C02FE030E001C0220FE4
:105100004A95EAF72095302F369536953370323030
:1051100069F050F44091F403313029F0822B84235C
:105120000E946318DCCE842B822BFACF282B80912F
:10513000F4038227F5CF202F2F70B22EDD2029F027
:10514000822F0E94B218812F1FCF812F0E94201D15
:105150008B2D0E947418C3CE812F32EF8316B1F1CC
:10516000381570F040EF8416D1F051EF851691F0AC
:10517000DD2009F482C0C11055CE802F8F712AC066
:1051800093EF891651F1E4EF8E12F2CF80917703FD
:1051900082FD2FC0802F8F71DD20D9F21BC080913E
:1051A000C603DD2079F0C81608F099CE202F2F71A4
:1051B00081E090E001C0880F2A95EAF79091F4030E
:1051C0008927AECF8C1508F48ACEF0CF802F8F714F
:1051D000D110BFCF0E94B21882CE80E0DD2009F44A
:1051E0009FCF81E0902F9F7101C0880F9A95EAF7B9
:1051F00097CF8091C003823040F1DD20D1F09091B3
:10520000F6029770943041F40E94410F802F8F7105
:105210000E947418A12C63CEC816E0F7F02FFF711E
:10522000BF2E8F2F0E94B21863E08B2D0E94BE18F4
:10523000F1CFC81630F00E94410F64E0802F8F71CB
:10524000F5CF81E00E948118E5CFDD2059F0202FB5
:105250002F71B22E822F0E94B21863E08B2D0E9414
:10526000BE183DCE81E00E94811831E03C1508F067
:1052700036CE82E00E94811832CECC2041F08933B4
:1052800009F4BBCE8091C2039091C303BACE802FA4
:105290008F715FCFDD2019F0C1102FCE32CEC1103B
:1052A0002CCE20E0F701408151816281738184819D
:1052B0000E949E158091C10383FF1FCE8091A202A0
:1052C0009091A302029709F018CE812F0E940E2020
:1052D00014CE0031FFE51F0709F49DC901312FE508
:1052E000120709F4B4C98091BF0380FF38C00E943F
:1052F0000F0A6C01F7018281882309F4B8C98091F3
:10530000110182FF08C020E233E040E0B60190E0E6
:1053100080E00E945E210B31FCE51F0709F499C96A
:105320000C312CE5120709F49AC990911101892FCB
:105330008E7F90FF81600A313CE5130709F492C922
:10534000C8019056811540E2940728F0905E8115BF
:10535000904108F09AC910929C0310929B03033F5E
:10536000FCE51F0709F4DBCA08F07ECA083D3CE5EE
:10537000130709F4CECA093D4CE5140709F4E7CA3E
:10538000073D5CE5150709F07BCA06E221EE41EE18
:1053900067ED7CE5C7010E94D12042C900313FE59D
:1053A000130709F450C901314FE5140709F09BCFE9
:1053B00082E04AC906315CE5150709F4DFCA80912D
:1053C000780382720A3CECE51E0709F4C4CC08F0AD
:1053D00051CC053C2CE5120709F4A9CC08F032CCDD
:1053E000033C4CE5140709F498CC08F09BCC023C34
:1053F0008CE5180709F46ACCF701828100811181DC
:10540000882309F4F0CCC8010E945A15D82E682FC1
:10541000C8010E94CB0FB8018D2D0E943D150E943E
:10542000880D182F092F882EF701D280C580C294CD
:105430003FE0C3228091F6028770C1F0AD2CDD20E1
:10544000B1F0892F807F803421F080E2810F883095
:1054500068F08091770382FF09C082E00E94811882
:105460008091F6028770AA24A3948111A12C902E1A
:1054700092942FE09222FBE0F91508F430CDE92D4B
:10548000F0E0E853F94C0C94FD35B0E0A0E0EBE41B
:10549000FAE20C9413368091C102807F09F052C069
:1054A0008091BE02882309F44DC0C091F30286E0CA
:1054B000B82E8091C2028C1709F444C0F090BC024F
:1054C000E090BD02C090BF02D090C002A6016E2D38
:1054D0008F2D0E94820FD0E0811139C0BC9E8001C7
:1054E000BD9E100D1124F801ED53FD4F81818E11E9
:1054F0002EC080818F112BC08281811128C0E38052
:10550000F480EC18FD0860E08CEB92E00E94C1157D
:105510008091BC039091BD03E816F906C0F4809118
:10552000C1028F7080618093C102F801E853FD4F82
:1055300080818F70806180838CEB92E00E943C229E
:105540000E948D0FCDB7DEB7E9E00C942F3621967F
:10555000C770AFCFA1E1B0E0E0EBFAE20C940D36FA
:105560008C0185E0F801DE011D9601900D928A956F
:10557000E1F7D8015C9011966C9011971296EC901F
:1055800012971396CD90DC9060E08CEB92E00E9435
:10559000C1158CEBA82E82E0B82E8090BF029090AF
:1055A000C002A4016091BD028091BC020E94820FE2
:1055B000811176C1F090BE02F601E819F9094F0198
:1055C00060E0FF2009F422C1C5010E94C11580914D
:1055D000BC039091BD037090C1028816990608F033
:1055E000D7C04091BF025091C002B090BC02A090C1
:1055F000BD02872D807F6A2D09F082C08B2D0E940D
:10560000820FFE2C81111DC0D80111968C9111972B
:105610008A1117C08C918B1114C0E11012C0872D14
:105620008F7080618093C1028CEB92E00E943C22DB
:105630008091C102F80185838F2D6196EFE00C9473
:105640002936A601662D852D0E94820FD82E81E075
:105650008E25D11080E080FF18C04E2D662D852D3F
:105660000E94620F882389F08091C10380FF0DC0E2
:105670008CEB92E00E943C2286E0ECEBF2E0DF0152
:105680001D928A95E9F7F12CD7CF81E08E25D110B4
:1056900080E0B82FB170CB2E80FF29C04E2D662D33
:1056A000852D0E94620FD82E811121C05D866E86E5
:1056B0008D859E850E948915292F22952F70223075
:1056C00050F0243078F49F7051F0F8019581907F6C
:1056D00031F4FD2CB1CF9F7011F08823D1F3805E9F
:1056E0008830B8F3C8010E943C22DC2CF2CFEE20B7
:1056F00009F4A2CF8091C10281608093C102C3CF1F
:105700008B2D0E94820F811119C0D80111968C91A6
:1057100011978A1113C08C918B1110C0E1100EC02B
:1057200015967C92C8010E943C2286E0F801ACEB01
:10573000B2E001900D928A95E1F77ECFC8010E94F8
:105740009615882309F1EE20F9F08091C10280328C
:1057500070F02091BC023091BD0238872F831986EA
:10576000DB86CA868C87CE0107960E943C2286E0A3
:10577000F801ACEBB2E001900D928A95E1F70E943E
:10578000452AFF24F39458CFC8010E943C22F9CF48
:10579000872D807F09F46CCF9090BC028090BD0271
:1057A0004091BF025091C002682D892D0E94820F46
:1057B000811113C0F801818188110FC08081891186
:1057C0000CC0E1100AC07582C8010E943C2286E02C
:1057D000D5011D928A95E9F72FCFC8010E94961531
:1057E000882391F2EE2081F28091C102803208F488
:1057F000BECF2091BC023091BD023A8329831B8227
:10580000DD82CC828E83CE010196AFCF8CEB92E00D
:105810000E94C1158091BC039091BD038816990622
:10582000B0F6FE2CEE2009F4AFCFE090BC02D09091
:10583000BD024091BF025091C0026D2D8E2D0E947D
:10584000820F81111FC0F80181818D111BC08081E1
:105850008E1118C08091C10382FD67CF9091C10263
:1058600090FD63CF907F09F460CF8091C102858362
:10587000903F09F457CF982F907F905F8F70892BBE
:10588000858350CFC8010E949615811170CF8091F9
:10589000C10281608093C102C8010E943C22CCCE2B
:1058A000EE2009F471CFC8010E949615F82E8823C6
:1058B00009F46ACF86E0F801ACEBB2E001900D92FA
:1058C0008A95E1F78091BC029091BD020E948915F2
:1058D0000E94452AB1CEA7E1B0E0E1E7FCE20C94DA
:1058E0001936942F4B8B252F5C8B6D8B7E8B8F8B7A
:1058F0004E895F89622F892F0E94820F811109C012
:105900008091A2029091A30201969093A3028093AA
:10591000A2028D8981111092F3031A8A198A85E0F7
:10592000FE017396DE011D9601900D928A95E1F7B6
:105930008091770382FF1EC08091A6039091A703F8
:10594000892BC1F00E940F0A2091F4023091F502D8
:10595000821B930B2091A6033091A7038217930714
:1059600020F08091F60282FF6FC00E94480F8111E3
:105970000E941B0F86E0FE013D96DE011796019006
:105980000D928A95E1F7CE0107960E94AA2A81110D
:1059900011C086E0FE013796DE01119601900D924E
:1059A0008A95E1F74A855B8568858F810E94820F21
:1059B000882359F016E08091F3029091C202891376
:1059C00031C06796E3E00C9435362091C20230E096
:1059D000C9010196877099274091F302481719066B
:1059E00099F096E0929FD001939FB00D1124AD5392
:1059F000BD4FFE01319601900D929A95E1F780938B
:105A0000C2020E948D0FD6CF0E94DA181092C202F5
:105A10001092F30286E0ECEBF2E0DF011D928A9532
:105A2000E9F7C8CF819FC00111248D539D4F0E947B
:105A3000AA2A882331F28091F30290E001968770C0
:105A400099278093F302B7CF82E00E9481188DCF0F
:105A5000A5E0B0E0EEE2FDE20C941A3690937303F9
:105A600080937203811520E2920730F40E946D1D2D
:105A70002596E2E00C94363680EF89838A831B8278
:105A80000E940F0A8160782F9D838C8349815A81FF
:105A90006B818D810E946B2CEBCF90E080E00E94A7
:105AA0008236883E9E4F19F40E94CB15089580E0FF
:105AB00008951F920F920FB60F9211242F933F93C8
:105AC0004F935F936F937F938F939F93AF93BF9306
:105AD000CF93DF93EF93FF93D091E900DF70809134
