:100000000C9498070C94D0070C94D0070C94D0074C
:100010000C94D0070C94D0070C94D0070C94D00704
:100020000C94D0070C94D0070C94E4270C94A027D0
:100030000C9437290C94D0070C94D0070C94D0075B
:100040000C94D0070C94D0070C94D0070C94D007D4
:100050000C94D0070C9413290C94D0070C94D0075F
:100060000C94D0070C94D0070C94D0070C94D007B4
:100070000C94D0070C94D0070C94D0070C94D007A4
:100080000C94D0070C94D0070C94D0070C94D00794
:100090000C94D0070C94D0070C94D0070C94D00784
:1000A0000C94D0070C94D0070C94D0070631FF09AC
:1000B00074A1010975150026FF00952075088102BD
:1000C0000976150026FF00952075089102C00501EC
:1000D0000902A10185020901A100050919012905EB
:1000E00015002501950575018102950175038101B2
:1000F0000501093009311581257F950275088106B2
:1001000009381581257F950175088106050C0A3887
:10011000021581257F950175088106C0C00501097A
:1001200080A101850319012AB700150126B70095A2
:100130000175108100C0050C0901A1018504190198
:100140002AA002150126A002950175108100C006A3
:1001500060FF0961A1010962150026FF0095207565
:100160000881020963150026FF0095207508910299
:10017000C005010906A101050719E029E7150025B9
:10018000019508750181029501750881010507191E
:100190000029FF150026FF00950675088100050857
:1001A00019012905950575019102950175039101C4
:1001B000C03F00433E20005B735D00253032583A5B
:1001C00020253038620A000A722F63203031323322
:1001D000343536370A006432141E140A05FD377AA6
:1001E000585A000004E6D6B4460200210116000069
:1001F00000742FE5A3E00389015B5D003D8889C69B
:100200005436C3174FE4E00A876759DA485207D8D3
:10021000F93F7AC442D539EE0593EE66D2AEE9696C
:100220000AEEDC36A498B7A0A9EF070F59E4C45E24
:1002300007B3FD5B57F242A1842544975E852D3FAD
:10024000C4B0CB055E82B525B5660B2C5BE09DD0B6
:100250008FE6310F9173AB87F2C9FDC7249B3FA78F
:1002600086CBA8C9C94C0A3498B88E68BB0C59F71C
:1002700092C0C41C23DAF823A48FB6B651905FC78E
:10028000F5E20197537A9454CDDCC4B40550E2F101
:1002900085F20847A3A4344D541E049C25FC5FED51
:1002A0003018FFB2781268C8F69CA5788C36E8330F
:1002B000607145D6AC64F3DE478D00F40393FFE72D
:1002C000B632106DE45A6AB3B64DB0E4DDCF0B011F
:1002D0007993877590881850C242716FC8D1DF1525
:1002E0001E43171FE3DBAFCEDA0B5218999FD1A83C
:1002F0003FC338038C208C11C2762CD4C775AFD085
:100300008FCD4BF37FC77DB45EDA8C1D452754D06B
:100310002D8D6EC53C74F5699092215FF3ECE3542A
:100320001DB0F48EFC2B3C2CF2294D2F5054160B93
:1003300043DE2C2EA3184DC8C7D1F24143703A605A
:10034000CA98611D48169710D2560655A7B7F43FB4
:100350008EBA7A29A9920000002DD499A973D815D4
:10036000D80001F7028A070000C6EEA936B1C467BB
:10037000FB020000000004595A290A002575002FCD
:10038000002575005D2800256400200025640020FC
:100390000025640020002564007C002530325800D0
:1003A0006D6F7573656B6579205B62746E7C782008
:1003B00079207620685D287265702F61636C293A18
:1003C000205B0000010101010101010101020202A3
:1003D00002020202020203030303030303030404F1
:1003E00004040404040505050505060606060607BB
:1003F0000707070708080808090909090A0A0A0B74
:100400000B0B0C0C0C0D0D0D0E0E0E0F0F0F101014
:10041000111111121213131414151516161717189B
:100420001819191A1A1B1B1C1D1D1E1E1F20202106
:100430002222232424252626272829292A2B2C2D4D
:100440002D2E2F30313232333435363738393A3B6E
:100450003C3D3E3F404142434445464748494A4C63
:100460004D4E4F50515354555658595A5B5D5E5F2F
:10047000616264656668696B6C6D6F7072737577C5
:10048000787A7B7D7E8082838587888A8C8E8F9127
:10049000939596989A9C9EA0A2A3A5A7A9ABADAF51
:1004A000B1B3B5B7BABCBEC0C2C4C6C9CBCDCFD13B
:1004B000D4D6D8DBDDDFE2E4E7E9EBEEF0F3F5F8E4
:1004C000FAFDFF2223252628292A2C2D2F3032330E
:1004D0003536383A3B3D3E4042434547494A4C4E0B
:1004E0005051535557595A5C5E6062646668696B37
:1004F0006D6F71737577797B7D7F81838587898A3D
:100500008C8E90929496989A9C9E9FA1A3A5A7A842
:10051000AAACAEAFB1B3B4B6B8B9BBBCBEBFC1C272
:10052000C3C5C6C7C9CACBCCCDCED0D1D2D2D3D405
:10053000D5D6D7D7D8D9D9DADADBDBDBDCDCDCDC23
:10054000DCDDDDDDDDDCDCDCDCDCDBDBDBDADAD9F1
:10055000D9D8D7D7D6D5D4D3D2D2D1D0CECDCCCB73
:10056000CAC9C7C6C5C3C2C1BFBEBCBBB9B8B6B491
:10057000B3B1AFAEACAAA8A7A5A3A19F9E9C9A9821
:10058000969492908E8C8A89878583817F7D7B79F2
:10059000777573716F6D6B6968666462605E5C5AD3
:1005A0005957555351504E4C4A4947454342403E96
:1005B0003D3B3A3836353332302F2D2C2A29282628
:1005C0002523220000000029002B000151E100E05A
:1005D00000000000000000210008008B000600075A
:1005E0000000000000000020001A00E2001B0016BE
:1005F000000000000000001E0000003500000000A8
:1006000000000000000000000000000000000000EA
:100610000000000000000022001500000019000981
:10062000000000000000001F001400E3001D000493
:1006300000000000000000230017002C0005000A45
:100640000000000000000026000C00880036000EAC
:1006500000000000000000250018008A0010000DB6
:100660000000000000000024001C00000011000B2E
:100670000000000000000027001200E60037000F15
:10068000000000000000002A0000004F00E50028E4
:1006900000000000000000890030005100520031CD
:1006A000000000000000002D00130001513800334D
:1006B000000000000000002E002F005000870034D2
:1006C00000000000000000A5003900010001000149
:1006D000000000000000003D00010001000100A832
:1006E000000000000000003C00010001000100A922
:1006F000000000000000003A0000000100000000BF
:1007000000000000000000000000000000000000E9
:10071000000000000000003E00010000000100A5F4
:10072000000000000000003B00010001000100AAE1
:10073000000000000000003F000100010001000176
:10074000000000000000004200460001004D004A89
:1007500000000000000000410001000100560054AC
:10076000000000000000004000010000005700559C
:10077000000000000000004300470001004E004B55
:10078000000000000000004C0000000100010058C3
:10079000000000000000004900010001000100010C
:1007A000000000000000004400480001005100501B
:1007B0000000000000000045005200010001004F51
:1007C0000000006B65796D61705F636F6E666967CD
:1007D0002E7261773A20253032580A2E7377617075
:1007E0005F636F6E74726F6C5F636170736C6F6365
:1007F0006B3A2025750A2E636170736C6F636B5FB3
:10080000746F5F636F6E74726F6C3A2025750A2E79
:10081000737761705F6C63746C5F6C6775693A20A5
:1008200025750A2E737761705F7263746C5F7267EF
:1008300075693A2025750A2E737761705F6C616C5B
:10084000745F6C6775693A2025750A2E737761703D
:100850005F72616C745F726775693A2025750A2E44
:100860006E6F5F6775693A2025750A2E7377617020
:100870005F67726176655F6573633A2025750A2E3E
:10088000737761705F6261636B736C6173685F62E1
:1008900061636B73706163653A2025750A2E6E6B18
:1008A000726F3A2025750A2E737761705F657363E6
:1008B0006170655F636170736C6F636B3A2025755F
:1008C0000A0064656275675F636F6E6669672E72A2
:1008D00061773A20253032580A2E656E61626C6568
:1008E0003A2025750A2E6D61747269783A20257553
:1008F0000A2E6B6579626F6172643A2025750A2E43
:100900006D6F7573653A2025750A006565636F6EB6
:100910006669673A0A64656661756C745F6C6179D3
:1009200065723A2025750A000A092D204D61676914
:1009300063202D0A443A094465627567204D65734A
:100940007361676520546F67676C650A583A094D93
:100950006174726978204465627567204D6F6465C3
:1009600020546F67676C65202D2053686F77206B6C
:1009700065797072657373657320696E206D61743B
:1009800072697820677269640A4B3A094B6579622B
:100990006F61726420446562756720546F67676C8D
:1009A00065202D2053686F77206B657970726573B1
:1009B00073207265706F72740A4D3A0944656275EE
:1009C00067204D6F75736520546F67676C650A56B5
:1009D0003A0956657273696F6E0A533A0953746126
:1009E0007475730A433A09416374697661746520CA
:1009F000436F6E736F6C65204D6F64650A46312DD1
:100A00004631303A0953776974636820746F204C1B
:100A10006179657220302D392028463130203D2003
:100A20004C30290A302D393A0953776974636820AC
:100A3000746F204C6179657220302D390A4752411C
:100A400056453A0953776974636820746F204C6186
:100A500079657220302028616C7465726E617465EE
:100A6000290A423A094A756D7020746F20426F6FEF
:100A7000746C6F616465720A4553433A094A756D37
:100A80007020746F20426F6F746C6F6164657220A8
:100A900028616C7465726E617465290A453A095063
:100AA00072696E7420454550524F4D2053657474E1
:100AB000696E67730A4253504143453A09436C6576
:100AC000617220454550524F4D0A000A092D2043BE
:100AD0006F6E736F6C65202D0A4553432F713A0971
:100AE000717569740A6D3A096D6F7573656B657917
:100AF0000A002573000A092D205374617475732050
:100B00002D0A686F73745F6B6579626F6172645FE1
:100B10006C65647328293A20253032580A6B657950
:100B2000626F6172645F70726F746F636F6C3A2092
:100B3000253032580A6B6579626F6172645F69644F
:100B40006C653A20253032580A74696D65725F729F
:100B5000656164333228293A202530386C580A0000
:100B60003F000A6D6F7573653A206F66660A000A6A
:100B70006D6F7573653A206F6E0A000A6B65796256
:100B80006F6172643A206F66660A000A6B6579626B
:100B90006F6172643A206F6E0A000A6D6174726947
:100BA000783A206F66660A000A6D61747269783A55
:100BB000206F6E0A000A64656275673A206F666688
:100BC0000A000A64656275673A206F6E0A000A0AB5
:100BD0004A756D70696E6720746F20626F6F746CF8
:100BE0006F616465722E2E2E2000433E2000436C00
:100BF000656172696E6720454550524F4D0A00315C
:100C00003A0964656C6179282A31306D73293A207C
:100C100025750A323A09696E74657276616C286DC1
:100C200073293A2025750A333A096D61785F73702C
:100C30006565643A2025750A343A0974696D655F03
:100C4000746F5F6D61783A2025750A353A097768C7
:100C500065656C5F6D61785F73706565643A2025CA
:100C6000750A363A09776865656C5F74696D655F0A
:100C7000746F5F6D61783A2025750A00703A0970CB
:100C800072696E742076616C7565730A643A0973D3
:100C900065742064656661756C74730A75703A09D1
:100CA0002B310A646E3A092D310A6C743A092B31E2
:100CB000300A72743A092D31300A4553432F713A84
:100CC00009717569740A0A7370656564203D206452
:100CD000656C7461202A206D61785F73706565644E
:100CE000202A2028726570656174202F2074696D38
:100CF000655F746F5F6D6178290A7768657265203A
:100D000064656C74613A20637572736F723D25641B
:100D10002C20776865656C3D25640A5365652068FD
:100D20007474703A2F2F656E2E77696B69706564E5
:100D300069612E6F72672F77696B692F4D6F7573BD
:100D4000655F6B6579730A004D3E20004D25753A4D
:100D500025733E20003F0A003D2025750A003F0A0A
:100D60000064656661756C74730A0025750A003F3E
:100D70000A000A092D2056616C756573202D0A0042
:100D8000710A000A092D204D6F7573656B65792016
:100D90002D0A004C25640A005B435D005B445D0046
:100DA0005B535D005B575D005B525D0009027B0099
:100DB000040100A0FA090400000103010100092157
:100DC0001101000122400007058103080001090408
:100DD000010002030000000921110100012222008C
:100DE0000705820320000107050303200001090411
:100DF000020001030000000921110100012281000D
:100E00000705840320000109040300020300000019
:100E1000092111010001222200070585032000019C
:100E20000705050320000112010002000000086907
:100E30006302000100010203011C037600690061E6
:100E4000006C003A00660036003400630032006235
:100E5000003300630000001003480048004B0042CC
:100E60000020004A00500000001003430069007099
:100E70000075006C006F007400000004030904009A
:100E80000000000000000000000000000000000062
:100E90000000000000000000000000000000000052
:100EA0000000007E0F00D4FFFFFFC70000007800A5
:100EB000000000000000002A2B28000000000000B5
:100EC0000000000000000000000029000000002CCD
:100ED0001E3420212224342627252E362D3738276C
:100EE0001E1F202122232425263333362E37381F78
:100EF0000405060708090A0B0C0D0E0F101112133A
:100F00001415161718191A1B1C1D2F3130232D35D7
:100F10000405060708090A0B0C0D0E0F1011121319
:100F20001415161718191A1B1C1D2F3130354C00BB
:100F300011241FBECFEFDAE0DEBFCDBF04B603FE43
:100F400018C08091CD039091CE03A091CF03B091B2
:100F5000D0038730904BA740B04B59F41092CD038B
:100F60001092CE031092CF031092D003E0E0F8E38A
:100F7000099512E0A0E0B1E0ECEAF0E602C00590CD
:100F80000D92AA38B107D9F723E0AAE8B2E001C070
:100F90001D92AD3CB207E1F70E945E290C943030FF
:100FA0000C940000FF93EF93E0918A02F0918B0282
:100FB000309709F00995EF91FF910895FC01859113
:100FC000803011F0EFDFFBCF0895FF27E0E230E241
:100FD00047FF0CC0419597FF09C0EDE26095709501
:100FE00080959095611D711D811D911D27FF02C087
:100FF000219530E350E2AA27660F771F881F991FBB
:10100000AA1FA41710F0A41B63955A95A9F7AA303C
:1010100008F0A95FA05DAF93F39561157105810597
:10102000910541F7ED3211F4EF93F395F21718F4AF
:101030003F93F395FBCF8F91B5DFFA95E1F70895D4
:10104000E991F9918591803021F0853219F0AADF7C
:10105000F9CF089520E0E89455915532C1F350330B
:1010600011F4689455915A3348F4505390F3220F79
:10107000022E220F220F200D250FF4CF0EF4219502
:1010800089919991533619F3533729F1533559F111
:10109000BC0188279927E8945C3621F489919991BD
:1010A00068945591543639F446EF7EF077FF0DC0C1
:1010B0008FEF9FEF0AC055374AE039F0583540E1CD
:1010C00021F0523642E009F00895FF93EF937DDF5F
:1010D000EF91FF91B7CFFF93EF93FC0181918030A7
:1010E000B9F360DFFBCFFF93EF9368DFF1CFDF93BE
:1010F000CF93CDB7DEB72596A3DFCF91DF910895CB
:10110000E8EDF0E080818E7F80831092E200109203
:10111000DA001092E100A0EEB0E08C9181608C9337
:1011200080818F77808319BCA7EDB0E08C918E7F92
:101130008C9380818F7E80831092B20308952091DA
:10114000E4003091E50095E6A9012091EC00822FA2
:10115000817020FF06C08091E80080FF06C080E01B
:1011600008952091E80022FD1AC08091BF038823D2
:1011700089F0853089F08091EB0085FD0FC02091CA
:10118000E4003091E50042175307F9F29150E1F67F
:1011900084E0089582E0089583E0089581E0089551
:1011A000EF92FF920F931F93CF937C018B010E94CC
:1011B0009F08C82F811117C08091E80085FD0BC0E2
:1011C0008091E8008E778093E8000E949F08882332
:1011D00099F3C82F08C0F70181917F018093F10036
:1011E0000150110949F78C2FCF911F910F91FF905A
:1011F000EF9008958091C10387FF13C08091E800AC
:1012000082FF06C08091E8008B778093E80004C0DD
:101210008091BF038111F2CF08958091BF0388238D
:10122000D9F38091E80080FFF8CF8091E8008E77B5
:10123000ECCF982F9093E900242F762F50E0891758
:1012400031F07091EC002091ED005091F00021FD03
:1012500007C09F5F973071F78093E90081E00895A0
:101260003091EB003E7F3093EB003091ED003D7FFD
:101270003093ED003091EB0031603093EB007093D0
:10128000EC002093ED005093F0002091EE0027FD3C
:10129000E0CF80E00895B0E0A0E0E1E5F9E00C9453
:1012A000912FC8EDD0E088818F7E8883E7EDF0E054
:1012B00080818160808384E082BF81E08093B2037B
:1012C00088818E7F888302EE10E0F80110821092F0
:1012D000DA0081EEC82ED12CF601108288818F773A
:1012E000888388818068888388818F7D888319BC02
:1012F0001092BF031092C0031092BE031092BD0360
:1013000090EEE92EF12CF70180818B7F808388811C
:101310008160888342E060E080E00E941909F60164
:1013200080818E7F8083F8018081816080838081CD
:1013300088608083F70180818E7F808388818061CF
:101340008883CDB7DEB7E8E00C94AD2FFC01809127
:10135000C7039091C80386179707A0F06115710520
:1013600029F49091E8009E779093E80090E0611551
:10137000710551F4911108C08091E80082FF34C0DA
:1013800080E00895BC01F2CF8091BF038823C1F1B2
:101390008530C1F18091E80083FD30C08091E80084
:1013A00082FDEACF8091E80080FFE1CF8091F300D9
:1013B0002091F200382F6115710519F028303105A0
:1013C00058F091E02830310509F090E02091E800D4
:1013D0002E772093E800CBCF81918093F10061506C
:1013E00071092F5F3F4FE7CF8091BF03882341F002
:1013F000853041F08091E80083FFBECF81E0089501
:1014000082E0089583E0089508958091B4030895DB
:101410009C014FB7F8948091A8039091A903A091E3
:10142000AA03B091AB034FBF821B930B08952FB754
:10143000F8946091A8037091A9038091AA039091F8
:10144000AB032FBF08952FB7F8948091A803909114
:10145000A903A091AA03B091AB032FBF08959C01EB
:10146000FC0132969FEF80E04191461751F09F3F7B
:1014700019F4411101C0982F8F5F8630A9F79F3F63
:1014800009F40895290F311D97FD3A95F9016283FA
:1014900008952091A5033091A6032817390771F00C
:1014A0009093A6038093A503E091A303F091A40376
:1014B000309721F00084F185E02D09950895209161
:1014C000A1033091A2032817390771F09093A2036A
:1014D0008093A103E091A303F091A403309721F03E
:1014E0000680F781E02D09950895E091A303F0911E
:1014F000A403309729F00190F081E02D099508951B
:1015000080E00895FA01811101C0FB010995089559
:10151000089580919103982F9E7F29F481708260B5
:101520008093910308958831E8F381708661F8CF44
:10153000AF92BF92DF92EF92FF920F931F93CF93E0
:10154000DF93082F162FE901E42FF0E0ED53FC4F55
:10155000611110C0E4915E2F4E2F4983E8835A83B6
:10156000DF91CF911F910F91FF90EF90DF90BF908F
:10157000AF900895E62EF12C4491D42EE42FF0E0A4
:1015800026E0829FC00111242FEF30E0B9010E94B4
:10159000522F802F90E0880F991F55E5569FD0015C
:1015A000579FB00D11248A1B9B0B982F990F890F01
:1015B0005901AE18BF08AE9ED001AF9EB00DBE9EC1
:1015C000B00D11245B2F189F80011124012F1127CA
:1015D0005901A01AB10AAE9E8001AF9E100DBE9EA9
:1015E000100D11245901A81AB108AE9CC001AF9C7E
:1015F000900DBE9C900D1124892F9927281B390B23
:101600002E9FC0012F9F900D3E9F900D1124E92F1A
:1016100062307105A1F050F46115710509F49DCF98
:101620006130710581F0EB2F512F97CF6430710538
:1016300069F080F06630710509F48FCFF4CFE42FA4
:101640004B2F592F8ACFE42F412F87CFEB2F542FC9
:10165000492F83CF4B2F5D2DE12F7FCF90915803E2
:10166000803F59F48091590387FF0DC010925903B0
:1016700091110BC01092510308C0813F81F48091F9
:10168000590318169CF3992381F080915A03909185
:101690005B03892B09F064C010924F030895823FC9
:1016A00049F497FFF0CF10925803809159038111AC
:1016B000ECCFE0CF833F19F41916ACF3E4CF2091BF
:1016C0005A03893F29F41216F4F610925A03DBCF1D
:1016D0008A3F19F427FFD7CFF8CF20915B038B3FC8
:1016E00029F427FFD0CF10925B03CDCF8C3F19F4A4
:1016F0001216CCF3C8CF843F31F4809157038E7F0C
:1017000080935703C0CF853F21F4809157038D7F8D
:10171000F7CF863F21F4809157038B7FF1CF873F2E
:1017200021F480915703877FEBCF883F21F480918C
:1017300057038F7EE5CF8D3F31F4809150038E7F2C
:1017400080935003A0CF8E3F21F4809150038D7F72
:10175000F7CF8F3F09F097CF809150038B7FF0CF69
:1017600008958091500380FF0CC06091100170E0DB
:1017700075956795759567956115710549F1862F82
:10178000089581FF06C06091100170E0759567951E
:10179000F3CF6091100182FD0BC090914F0399230C
:1017A000A1F060910F0180911001961738F0682F19
:1017B00070E06038710500F38FE70895899FC001DC
:1017C000112470E00E94662FF4CF61E070E0D7CF63
:1017D00081E008958091500380FF0DC06091120157
:1017E00070E0660F771F6038710570F5611571053F
:1017F00069F1862F089581FF07C06091120184E08E
:10180000689FB0011124EFCF82FF04C060911201E4
:1018100088E0F6CF80915103882399F0209111013F
:10182000609112018217A0F7869FC001112433E056
:10183000880F991F3A95E1F7622F70E00E94662F9A
:10184000D2CF68E070E0D5CF8FE7089581E00895AA
:10185000803F31F40E94EA0B8195809359030895EB
:10186000813F19F40E94EA0BF8CF823F31F40E94C5
:10187000EA0B8195809358030895833F19F40E94E1
:10188000EA0BF8CF893F29F40E94B10B80935A03E9
:1018900008958A3F21F40E94B10B8195F7CF8B3FC9
:1018A00031F40E94B10B819580935B0308958C3FC6
:1018B00019F40E94B10BF8CF843F31F480915703A3
:1018C0008160809357030895853F21F480915703E9
:1018D0008260F7CF863F21F4809157038460F1CF77
:1018E000873F21F4809157038860EBCF883F21F434
:1018F000809157038061E5CF8D3F31F48091500393
:1019000081608093500308958E3F21F480915003AD
:101910008260F7CF8F3FB9F7809150038460F1CF99
:101920009091350392FF06C0282F28712830F9F4D2
:10193000877F846093FF06C0282F28712831F1F437
:10194000877E84612091360320FF06C0382F3871CE
:101950003830D9F4877F816021FF06C0282F287195
:101960002831D1F4877E816194FD877E0895282FE8
:1019700024712430F9F68B7F8860DCCF282F247106
:10198000243101F78B7E8861DDCF382F3171313002
:1019900019F78E7F8860E0CF282F2171213121F740
:1019A0008E7E8861E1CFCF93DF93EC018238910581
:1019B000B1F108F040C08133910509F49DC048F5AC
:1019C0008932910509F48DC08A9709F49CC0C1152C
:1019D00021E5D20708F0C3C0C11530E5D30708F0F0
:1019E0001BC1C83ED10508F0A3C0C13ED10588F592
:1019F000C83AD10508F08EC0C53AD10508F004C137
:101A0000C130D10531F1209721F1C430D10508F55D
:101A100045C08533910509F45FC0C997C1F680912F
:101A20003503837009F049C18091360383FF11C0EB
:101A3000C9E2D0E00EC0833E910599F170F4803E7A
:101A4000910501F1823E910511F68091350382FDE9
:101A500021C0CE01DF91CF910895863E910561F1BD
:101A6000873E910571F1843E910509F0B0CF8091D8
:101A7000360381FFEECF80913503C7EED0E084FDC1
:101A80000DC0E7CF8091350380FD33C090913603C0
:101A900090FFDFCFC3EED0E084FFDBCFD0E0C0E02B
:101AA000D8CF8091350382FD05C19091360390FD1A
:101AB00004C184FFCECFF2CF8091350383FDDDCF0B
:101AC000C8CF8091350383FDFBC09091360391FF11
:101AD000F0CFC4EED0E0BDCF8091350385FFB9CF04
:101AE000A7CF8091350385FDEEC08091360383FF3B
:101AF000B0CFC9E3D0E0ADCF8091350386FFA9CF49
:101B0000CAE2D0E0A6CF8091350386FFA2CFC1E321
:101B1000D0E09FCFCF3BD10508F6C85AD0E0CC0F1C
:101B2000DD1FC45CDD4F0990D881C02DD46491CFF6
:101B3000C11540E2D40758F4C11581E0D80708F078
:101B400088CFC03FD10508F4A9CFD06582CFC11599
:101B500090E4D90708F4A2CFDF70D06A7ACFC1151C
:101B600025E5D20700F5C11534E5D30708F08AC092
:101B7000C11543E5D40708F071C0C11582E5D80747
:101B800008F467C0CE018370992721E030E002C0DD
:101B9000220F331F8A95E2F7C695C69580E2C89F4B
:101BA000E001112452C0C11599E5D907A8F4C11567
:101BB00028E5D20708F06BC0C11536E5D30708F059
:101BC0006DCF8C2F0E94900CC82FD0E0DC2FCC273B
:101BD000CC27DF71D0623DCFC1154AE5D40708F4A8
:101BE0005BC0CE0190568115904208F057CF8D2FE3
:101BF0008F710E94900C90E0982F882788279F7102
:101C00009C012C2BE901E6CFC55AD0E0C75CDD4F23
:101C1000C881D0E0D0641DCFCE01E4E096958795D1
:101C2000EA95E1F783702C2F26952695237040E2E4
:101C3000249F90011124382B8C2F8370C1E0D0E0B9
:101C400002C0CC0FDD1F8A95E2F7C22BD32BDC68D4
:101C500000CFDC2FCC27C16FD06AFBCECE018370C2
:101C6000992721E030E002C0220F331F8A95E2F766
:101C7000C695C69590E2C99FE0011124C22BD32BD3
:101C8000DA68E7CEDC2FCC27C46FD06AE2CEDC2F37
:101C9000CC27C06FD06ADDCE8C2F8F700E94900C45
:101CA00034E0D695C7953A95E1F7CF709C2FEC01BB
:101CB000D069CFCEC2EED0E0CCCEC0EED0E0C9CE5F
:101CC000C6EED0E0C6CEC5E3D0E0C3CE809111030E
:101CD000882331F0109211031092100310920F0319
:101CE0000895809590910E03982390930E03089584
:101CF000109204031092030310920203089580913E
:101D000001039091D002981301C008958F5F8770EE
:101D1000FACF903180F5883070F548E0949F9001BB
:101D20001124820F932F911D682F677023E09695E1
:101D300087952A95E1F7FC01EE0FFF1FE80FF91FC9
:101D4000E656FD4F50E040E080E0219130E0062E65
:101D500002C0369527950A94E2F721703327042EA6
:101D600001C0220F0A94EAF7822B4F5F5F4F433086
:101D7000510559F7089580E00895903198F588301D
:101D800088F548E0949F90011124820F932F911DB4
:101D9000282F277041E001C0440F2A95EAF723E07D
:101DA000969587952A95E1F7FC01EE0FFF1FE80F46
:101DB000F91FE656FD4F90E080E070E05191DF01A1
:101DC00011979B01082E02C0369527950A94E2F7D9
:101DD000217021952527242325272C9301968330D4
:101DE000910561F708958091BF03843021F110922D
:101DF000A70388E190E020E40FB6F894A8958093BB
:101E000060000FBE2093600083B7817F846083BF32
:101E100083B7816083BF7894889583B78E7F83BFB3
:101E20000FB6F894A8958091600088618093600057
:101E3000109260000FBE0895829590E09C01220FE1
:101E4000331F220F331F2C7C959587959595879589
:101E50008373282B30E0C901880F991F8A7A359542
:101E600027952575822B08959C013A9521153F41B0
:101E700050F5FC01EE27F170BC0166277270AC01D1
:101E8000442754709C012227387094FF0EC080E1D3
:101E9000EF2B09F480E0672B09F08062452B09F0F5
:101EA0008064232B89F08068089581E0EF2B09F48A
:101EB00080E0672B09F08260452B09F08460232BBA
:101EC00019F08860089580E008959FB7F894109203
:101ED000B0039FBF9091BF03943009F048C0209198
:101EE000E9002F703091EC00932F917030FD90E855
:101EF000922B25E02093E9002091EB0020FF34C0D5
:101F00002091EE0027FF30C02091AF03222321F063
:101F10002091E80025FF28C01092AF0326E0309101
:101F2000E80035FF14C08093F1008091E80085FD42
:101F300027C08091E80080FFFCCF8091E8008E7779
:101F40008093E8009F709093E90080E008953091BD
:101F5000BF03343049F43091EB0035FD05C021500A
:101F600041F481E08093AF039F709093E9008FEF7D
:101F70000895EFE9FFE03197F1F700C00000CFCFFF
:101F80008FB7F89421E02093B0038FBFDBCF80930D
:101F9000AC037093AE036093AD038091BF038430B4
:101FA000F9F48093E9008FEF9091E800815095FD5E
:101FB00006C095ED9A95F1F700008111F5CF80915B
:101FC000E80085FF0DC050E040E063E070E08CEA7F
:101FD00093E00E94D0088091E8008E778093E8001B
:101FE0000895BC0184E00E94C70F0895BC0183E0FE
:101FF0000E94C70F08959C0184E08093E9009FEF41
:102000008091E800915085FD06C085ED8A95F1F735
:1020100000009111F5CF8091E80085FF0CC050E0E1
:1020200040E066E070E0C9010E94D0088091E800BD
:102030008E778093E8000895CF93DF93EC0181E0E1
:102040008093E9008FEF9091E800815095FD06C0E4
:1020500095ED9A95F1F700008111F5CF8091E80098
:1020600085FF14C050E040E068E070E0CE010E94BF
:10207000D0088091E8008E778093E80088E0FE0128
:10208000A5EBB3E001900D928A95E1F7DF91CF9136
:10209000089581E08093E00080E28093D800109260
:1020A000C9008FE19EE40197F1F700C0000087E0CE
:1020B00090EBDC018093CD039093CE03A093CF03EC
:1020C000B093D00388E19CE00FB6F894A895809374
:1020D00060000FBE90936000FFCF8091910380FD60
:1020E0000AC0E4E6F3E0118210821282339653E0D4
:1020F000E139F507C1F7549A3BB13F7E2BB120611E
:102100004FB7F89484E693E0FC015191CF0168E069
:102110002BB9000000C057FF3BB9550F000000C0AD
:1021200000C000C03BB900C06A9591F7F3E0813967
:102130009F0751F74FBF8FE594E00197F1F700C07B
:1021400000000895EF92FF921F93CF93DF93EC016D
:1021500084E6E82E83E0F82E10E08C819701409110
:10216000940360919303810F0E94980A1F5E83E09D
:10217000E80EF11C1F3F89F70E946D109A818C8137
:1021800090FF08C08F5F8C83DF91CF911F91FF90EC
:10219000EF9008958150F7CF9091910390FF0CC07C
:1021A000E4E6F3E0818360834283339693E0E13990
:1021B000F907C1F70E946D100895A3E0B0E0E3EEC7
:1021C000F0E10C94952F8C01DC011496EC91F0E079
:1021D000ED53FB4F44918091910380FF0EC09E010F
:1021E0002F5F3F4F60919303809192030E94980A62
:1021F0004B8169818A810E94CC10F80184818F5FB4
:1022000084832396E4E00C94B12F0F931F93CF9314
:10221000DF93809113039091140320913A0330913E
:102220003B03309314032093130390933B03809359
:102230003A03D0E0C0E001E010E060E030E020E0F0
:10224000EC2FE7707C2F787085B1422F807C8E2B2D
:10225000862B85B988B18F73772309F49EC080647B
:1022600088B98AE18A95F1F700C0A0911303B09173
:102270001403AC0FBD1F8C9190E0042E02C0959505
:1022800087950A94E2F780FD2F9A95E39A95F1F7E6
:102290000000F6B52E98AAE1AA95F1F700C0C80192
:1022A00002C0880F991F4A95E2F7AC0180913A036A
:1022B00090913B03DC01AC0FBD1F4F9B70C040955C
:1022C0005C9145234C9346B54F1B463058F0A09186
:1022D0001303B0911403AC0FBD1F4C918C0F9D1FC5
:1022E000DC014C93BAE1BA95F1F700C02F982E9A11
:1022F00080EA8A95F1F72F5F3F4F685F28303105FC
:1023000009F0A2CFA0913A03B0913B03AC0FBD1FDF
:10231000E0911303F0911403EC0FFD1F9C91808159
:10232000981751F00E94170A6093940270939502D7
:1023300080939602909397022196C031D10509F0BF
:102340007CCF8091BF03853021F08091BF03811144
:102350001EC0409194025091950260919602709136
:1023600097022FB7F8948091A8039091A903A091A8
:10237000AA03B091AB032FBF841B950BA60BB70B21
:1023800081319742A105B10510F00E94F30E81E062
:10239000DF91CF911F910F910895806861CF5C917B
:1023A000452B90CF80910F011F928F938091100148
:1023B0001F928F93809111011F928F938091120130
:1023C0001F928F93809113011F928F93809114011C
:1023D0001F928F938FEF9BE09F938F930E947708BC
:1023E0008DB79EB70E960FB6F8949EBF0FBE8DBFE9
:1023F0000895883228F58E3108F072C08B3041F193
:1024000030F4873009F4CFC08EE59DE0E0C0833121
:1024100009F45FC08431C1F780E89DE00E94DE07C7
:102420008091A003882309F4FEC01092A0031092AB
:102430009F0310929E0310929D0310929C0320C054
:102440008F3409F4C7C0D8F5893231F38833E1F607
:1024500083E89DE00E94DE070E94D2111F9281E076
:102460008F931F9288E08F938CE79CE09F938F93CC
:102470000E9477080F900F900F900F900F900F9081
:102480002091A003222309F4C9C080919C0390915C
:102490009D03009711F48EE191E09F938F931F921B
:1024A0002F938CE49DE09F938F930E9477080F9069
:1024B0000F900F900F900F900F9081E0089581354D
:1024C00009F49CC008F49CC0823509F09DCF81E0DE
:1024D00082C082E79DE00E94DE070E94D211D0CF29
:1024E0008D518093A003833009F442C058F48130A9
:1024F000C1F08230A1F11092A0038FE69DE00E940E
:10250000DE071BC0853009F445C0D8F1863099F745
:102510008FE091E090939F0380939E0386E691E085
:1025200008C084E191E090939F0380939E0382E230
:1025300091E090939D0380939C038091A003882356
:1025400009F49ECF1F928F938BE69DE09F938F930C
:102550000E9477080F900F900F900F9091CF83E11A
:1025600091E090939F0380939E038BE291E0E1CFF3
:1025700082E191E090939F0380939E0387E391E033
:10258000D8CF81E191E090939F0380939E0384E4F0
:1025900091E0CFCF80E191E090939F0380939E03E1
:1025A00083E591E0C6CF81E08093140184E18093BC
:1025B00013018AE0809312018EE18093110188E07B
:1025C0008093100188E280930F0181E69DE00E94D4
:1025D000DE0756CF8AE0E0919E03F0919F0330978B
:1025E000D1F02081082E000C990B820F911D8F3F96
:1025F000910541F03CF08FEF808307C08FEFEBCF68
:1026000086EFE9CF97FFF8CF108280811F928F93DA
:1026100088E59DE09BCF85E59DE0D9CF88E49DE0EE
:102620000E94DE074ACF80E0089580919B0383FFDC
:102630007EC080EA93E00E94DE07809157031F92DC
:102640008F938BE993E09F938F930E94770889E99A
:1026500093E00E94DE0780915803282F082E000C7B
:10266000330B3F938F9386E993E09F938F930E9460
:10267000770884E993E00E94DE0780915903282FB0
:10268000082E000C330B3F938F9381E993E09F93C7
:102690008F930E9477088FE893E00E94DE07809175
:1026A0005A03282F082E000C330B3F938F938CE88E
:1026B00093E09F938F930E9477088AE893E00E94AB
:1026C000DE0780915B03282F082E000C330B3F930D
:1026D0008F9387E893E09F938F930E94770884E815
:1026E00093E00E94DE07809151031F928F9381E84F
:1026F00093E09F938F930E9477088FE793E00E9467
:10270000DE07809150031F928F938CE793E09F9395
:102710008F930E94770889E793E00E94DE078DB7C8
:102720009EB74C960FB6F8949EBF0FBE8DBF0E9409
:10273000230A9C019091580380915903982B21F012
:10274000309355032093540390915A0380915B0377
:10275000982B21F03093530320935203E091A3036D
:10276000F091A403309749F082E0809356030480EF
:10277000F581E02D86E593E0099508950F931F9369
:10278000CF93DF93823030F5603120F5483010F57B
:1027900020E1629F8001112450E0440F551F040F77
:1027A000151F90E0982F8827080F191FC8018796DA
:1027B0000E94E82FC82FD0E0DC2FCC27C8018896D4
:1027C0000E94E82F9E01282BC901DF91CF911F9114
:1027D0000F91089590E080E0F8CF462F2091980364
:1027E00030919903232B99F4703F39F4603F79F4C9
:1027F00080919603909197030895823040F4703150
:1028000030F4683020F4672F0E94BE13089590E0E2
:1028100080E00895CF92DF92FF920F931F93CF93A2
:10282000DF936C010091CC0380911203082BC7E069
:10283000D0E010E0FC2EC8010C2E02C095958795C3
:102840000A94E2F780FD0CC02197A0F7F12C8F2DA0
:10285000DF91CF911F910F91FF90DF90CF9008955E
:10286000B6018C2F0E94ED130E94D30C019761F3E7
:10287000EECFCF93DF93EC010E940A14BE010E94B9
:10288000ED130E94D30CDF91CF910895FC0180815C
:1028900091810E94391492959F70963091F058F46E
:1028A000925F9F70923058F4803F19F030F4883E68
:1028B00030F481E008959A5FF4CF843FD1F380E053
:1028C0000895883EB0F3813FD1F7F3CF83E290E0E3
:1028D0000E94E82F853989F484E290E00E94E82F75
:1028E0008B3E59F485E290E00E94E82F91E0873515
:1028F00009F090E0892F8170089580E0FCCFCF939C
:1029000084E090E00E94E82FC82F82E290E00E94CD
:10291000E82F982F8C2FCF910895CF93DF93C7E2A4
:10292000D2E060E0CE010E94FC2F2196C11584E028
:10293000D807B9F7DF91CF9108951F93CF93DF9315
:10294000122F8230E0F46031D0F44830C0F490E1CE
:10295000699FE001112450E0440F551FC40FD51F9B
:1029600090E0982F8827C80FD91F632FCE01879634
:102970000E94FC2F612FCE0188960E94FC2FDF91D0
:10298000CF911F9108958F929F92AF92BF92DF9245
:10299000EF92FF920F931F93CF93DF9380900D01DF
:1029A00090900E0181E090E090930E0180930D01D4
:1029B00083ECE82E85E0F82ED12C8701C0E013C00F
:1029C000F501259134914D2F6C2F8D2D0E949D1472
:1029D00082E0A80EB11CDF5FD83091F7005F1F4F77
:1029E000CF5FC03119F05801D0E0EACFF39481E015
:1029F000D81619F0DD24D394E0CF90920E01809286
:102A00000D01DF91CF911F910F91FF90EF90DF901B
:102A1000BF90AF909F908F900895CF93C82F6FEF86
:102A2000811165E983E290E00E94FC2F6FEFC111F4
:102A30006BEE84E290E00E94FC2F6FEFC11167E51E
:102A400085E290E00E94FC2FCF91089580E00E94E3
:102A50000D1560E086E290E00E94FC2F0E94C314F6
:102A60000E948D1481E00E940D150895CF92DF928F
:102A7000EF92FF926B017C010E94890AB701A601C7
:102A800088E090E00E940E30FF90EF90DF90CF90B2
:102A90000895A3E0B0E0EFE4F5E10C94932F082F44
:102AA000F62E142FE22E8091910380FF28C0E82F8C
:102AB000E695F0E0E659FD4F9081909362038E7F9A
:102AC000823009F59E012F5F3F4F802F0E94980AA8
:102AD0004B8169818A810E94CC1000939203F0920D
:102AE000930310939403EE2051F060919103709141
:102AF000920380919303909194030E94361523963C
:102B0000E6E00C94AF2F923019F410919403E5CFC6
:102B1000963019F700919203E0CFE1E9F3E04381A9
:102B200021E1421B08F440E021E0628181810E94A2
:102B300049150895E1E9F3E0438121E1420F08F4EA
:102B40004FEF21E0628181810E9449150895E1E9FA
:102B5000F3E0628121E1621B08F460E021E043813F
:102B600081810E9449150895E1E9F3E0628121E144
:102B7000620F08F46FEF21E0438181810E944915C3
:102B80000895E1E9F3E0818121E043816281885089
:102B90000E9449150895E1E9F3E0818121E0438134
:102BA0006281885F0E94491508958091950388236A
:102BB00019F0815080939503609191037091920375
:102BC00080919303909194030E943615089580910B
:102BD0009503833018F48F5F809395036091910380
:102BE0007091920380919303909194030E94361503
:102BF00008959091910390FF2CC0917081112AC08B
:102C0000926090939103662351F0609191037091CB
:102C1000920380919303909194030E9436156091E2
:102C20009103669570E041E050E08CE091E00E94F5
:102C3000C72F892BB1F01092630381E080935F036B
:102C400020E04091940360919303809192030E944D
:102C5000491508958C3010F09661D3CF880F982BCA
:102C6000D0CF81E0809363030E94230A90935D0399
:102C700080935C03E2CF809191038695815009F4A3
:102C80008BE061E00E94F91508958091910386958B
:102C90008F5F8C3008F081E061E00E94F9150895A3
:102CA0009091910390FF08C09695981728F0961779
:102CB00018F40E944516089561E00E94F9150895E0
:102CC000E1E9F3E083E0808311828FEF82838383E5
:102CD000148260817181828193810E9436150895EA
:102CE00080910E0390910D03892B80938C0280912B
:102CF0001103882319F10E94230A20910F033091B8
:102D00001003821B930B8838934110F00E94660ECB
:102D100080918C0290911103892B80938C0220E08A
:102D20008EE892E0FC013191CF0131112F5FF2E08A
:102D300084399F07B9F721110E94660E48E050E0E0
:102D400065E073E08CE892E00E94D42F892BA9F013
:102D500088E0ECE8F2E0A5E0B3E001900D928A95FE
:102D6000E1F7E091A303F091A403309731F00280E2
:102D7000F381E02D8CE892E00995089590E080E0E1
:102D80000E945F0A90E080E00E94490A10920D03C1
:102D90000E94701686E0E6E5F3E0DF011D928A9559
:102DA000E9F71092510310924F03109250030E94C2
:102DB000151308958093CC030E94BE160895809148
:102DC000CC03982F9670963021F488600E94DA1612
:102DD0000895877FFBCF21E030E001C0220F8A9564
:102DE000EAF720958091CC0382230E94DA16089599
:102DF000909104038095892380930403282F2770E2
:102E000091F4282F082E000C330B9217130659F05B
:102E10009091360392FF07C08595859585950E9410
:102E2000EB160E94780E0895CF93C0913603C2FB33
:102E3000992790F9981791F080FBC2F9C093360357
:102E40006091350384E090E00E94FC2F6C2F82E2B9
:102E500090E00E94FC2F82E00E94F816CF91089526
:102E600021E030E001C0220F8A95EAF78091CC037F
:102E7000822B0E94DA1608959091360392FF10C0BB
:102E800098E0899F90011124622B609304030E94B3
:102E900030170E94230A909303038093020308953E
:102EA0000E9430170895809312030E94BE16089561
:102EB00010920E03EEE8F2E086E0DF011D928A95A3
:102EC000E9F70E94BE160895AAE2B0E0EAE6F7E14B
:102ED0000C94962F81EC93E02091F100DC012D936E
:102EE000CD01B3E0893C9B07B9F78091C2038330E1
:102EF00009F472C0B8F4813009F449C0823009F491
:102F0000B3C08091E80083FF9CC28091C10390917F
:102F1000C2039A3008F095C2E92FF0E0EE5CFF4C56
:102F20000C947A2F8A3009F48EC08B3009F471C06A
:102F3000893039F78091C103813219F78091C50337
:102F40009091C603009711F00297D9F68091E8009E
:102F5000877F8093E8008091E80082FF38C09091DD
:102F6000F3008091F200029731F48091F1008130FA
:102F700011F0863021F48091F1008093B4038091A8
:102F8000E8008B778093E8000E94FA08BACF80911E
:102F9000C103813A09F0B5CF8091E800877F809323
:102FA000E8008091C5039091C603892B61F468E025
:102FB00085EB93E070E00E94A6098091E8008B7792
:102FC0008093E8009ECF60E090E080E0F3CF8091B6
:102FD000BF038111C0CF95CF8091C103813A09F021
:102FE00090CF8091C5039091C603892B09F089CFBA
:102FF0008091E800877F8093E8008091E80080FF5F
:10300000FCCF809115018093F1008091E8008E77CC
:10301000B9CF8091C103813209F073CF8091C5038C
:103020009091C603892B09F06CCF8091E800877FCF
:103030008093E8000E94FA088091C30380931501F1
:103040000E9458175ECF8091C103813209F059CF99
:103050008091E800877F8093E8000E94FA088091C1
:10306000C4038093B3034DCF8091C103813A09F02B
:1030700048CF8091E800877F8093E8008091E80046
:1030800080FFFCCF8091B303BECF803899F08238A7
:1030900009F0D7C18091C5038F70873008F0D1C186
:1030A0008093E9008091EB0085FB882780F91092DE
:1030B000E90006C08091BD039091BE03911182602A
:1030C0009091E800977F9093E8008093F100109230
:1030D000F1008091E8008E77B0C1882309F49EC189
:1030E000823009F0AEC18091C3038111A1C18091EA
:1030F000C5038F702FEF280F263008F0A2C18093F0
:10310000E9002091EB0020FF93C1933031F48091CE
:10311000EB0080628093EB008BC19091EB0090619B
:103120009093EB0021E030E001C0220F8A95EAF78E
:103130002093EA001092EA008091EB008860EACFC9
:1031400081117FC11091C3031F778091E3008078C4
:10315000812B8093E3008091E800877F8093E800D3
:103160000E94FA088091E80080FFFCCF8091E30084
:1031700080688093E30082E0111183E08093BF03B5
:1031800060C18058823008F05CC12091C303309147
:10319000C4032C3DE3E03E07A1F583E08A838AE285
:1031A00089834FB7F894DE01139620E03EE051E2A8
:1031B000E32FF0E050935700E49120FF03C0E29525
:1031C000EF703F5FEF708E2F90E0EA30C0F0C7964F
:1031D0008D939D932F5F243159F74FBF8091E80065
:1031E000877F8093E8006AE270E0CE0101960E943A
:1031F000A6098091E8008B778093E80022C1C096F1
:10320000E7CF8091C5039091C603432F55274330E4
:10321000510509F44AC078F54130510509F485C0DB
:103220008BE790E0ECEAFDE04230510509F009C17E
:103230002091E800277F2093E8002091C703309178
:10324000C8038217930708F49C0140E0211531055B
:1032500009F070C041116EC08091E80082FDC9CFB5
:103260008091BF03882329F2853019F28091E8000C
:1032700083FFF2CFBECF4132510509F447C042323D
:10328000510509F0DEC08430910508F0DAC0FC0178
:10329000EE0FFF1FE658FD4F0190F081E02D8A5898
:1032A0009D4FDC018C9190E01DC03327213031050A
:1032B000E9F02115310579F022303105F9F023309C
:1032C000310509F0BEC0E9E3FEE0E4918E2F90E005
:1032D000E9E3FEE007C0EBE7FEE0E4918E2F90E02B
:1032E000EBE7FEE0009709F4ACC0A2CFE9E6FEE010
:1032F000E4918E2F90E0E9E6FEE0F4CFE7E5FEE012
:10330000E4918E2F90E0E7E5FEE0ECCF843091056C
:1033100008F097C0880F991FFC01EE57FD4F0190F0
:10332000F081E02D89E090E083CF82E190E0E7E258
:10333000FEE07ECF8091BF03882309F45ACF853009
:1033400009F457CF8091E80083FD53CF8091E800C6
:1033500082FD82CF8091E80080FF78CF9091F300CA
:103360008091F2002115310519F08830910550F057
:1033700041E0089709F040E08091E8008E77809363
:10338000E80064CF44914093F10031962150310917
:103390000196E8CF803809F054C08091E800877F1B
:1033A0008093E8008091C0038093F10092CE811158
:1033B00048C01091C303123008F043C08091E80068
:1033C000877F8093E8001093C0030E94FA081123BE
:1033D00011F084E005C08091E30087FDFACF81E021
:1033E0008093BF0342E061EC81E00E94190942E250
:1033F00061EC84E00E94190942E261EC82E00E94E3
:10340000190942E260EC83E00E94190942E261EC92
:1034100085E00E9419098091BF0313C08091C30306
:10342000813079F481E0933009F080E08093BE032D
:103430001092E9008091E800877F8093E8000E9465
:10344000FA088091E80083FF0AC08091E800877F36
:103450008093E8008091EB0080628093EB00AA9655
:10346000E3E00C94B22FCF93C82F1F928F9383E980
:103470009DE09F938F930E94770881E001C0880FA1
:10348000CA95EAF70E9453170E9458170F900F90A1
:103490000F900F90CF9108950E9458172FEF84E35B
:1034A0009CE0215080409040E1F700C0000088E19E
:1034B0009CE00FB6F894A895809360000FBE90939F
:1034C0006000FFCF882341F0809590910D03892300
:1034D00080930D030E9470160895882339F090910F
:1034E0000D03982B90930D030E9470160895882366
:1034F00021F00E94710E0E9470160895882339F001
:1035000090910E03982B90930E030E9470160895CD
:103510008823C9F19CEF980F913A78F4EEE8F2E035
:103520009191891303C0DF0111971C9292E0E43955
:10353000F907B1F70E947016089590E2980F98303D
:1035400050F4877091E001C0990F8A95EAF7892FAE
:103550000E94710EEFCF9BE5980F933028F490E016
:1035600080E00E945F0A089598E5980F973128F44B
:1035700090E080E00E94490A0895803F20F00E9478
:103580002E0B0E941513089568EE7EEF90E080E008
:103590000E941A3060E082E090E00E94FC2F60E020
:1035A00083E090E00E94FC2F1092120360E084E020
:1035B00090E00E94FC2F64E082E290E00E94FC2FE9
:1035C00060E085E090E00E94FC2F60E086E090E003
:1035D0000E94FC2F6FEF87E090E00E94FC2F40E0FC
:1035E00050E0BA0188E090E00E940E3060E08DE08B
:1035F00090E00E94FC2F40E050E0BA0188E190E0AA
:103600000E940E3060E087E190E00E94FC2F40E0D5
:1036100050E0BA018CE190E00E940E3070E060E072
:1036200080E290E00E941A3040E050E0BA0188E168
:1036300090E00E940E3080E00E940D150E94261539
:1036400040E050E0BA018FE090E00E940E3040E090
:1036500050E0BA0183E190E00E940E300895EF92AD
:10366000FF920F931F93CF93DF938B3109F425C102
:1036700008F0B4C08B3009F4E1C008F086C0863091
:1036800009F4EFC048F4853009F4B6C080E69BE049
:103690000E94DE0780E0F5C0873009F4F7C088306B
:1036A000A9F783E090E00E94E82F1F928F938BE0B0
:1036B00099E09F938F930E94770882E090E00E94A8
:1036C000E82F83FB992790F91F929F9382FB9927FC
:1036D00090F91F929F9381FB992790F91F929F93D6
:1036E000982F91701F929F931F928F9382EC98E076
:1036F0009F938F930E9477080E947F1493FB222749
:1037000020F91F922F9387FB222720F91F922F93D6
:1037100086FB222720F91F922F9385FB222720F971
:103720001F922F9384FB222720F91F922F9383FB54
:10373000222720F91F922F9382FB222720F91F9224
:103740002F9391FB222720F91F922F93292F21706D
:103750001F922F9381FB222720F91F922F93282F4E
:1037600021701F922F939F938F9383EC97E09F93E9
:103770008F930E9477088DB79EB78A960FB6F894FC
:103780009EBF0FBE8DBF81E07CC0803109F4ADC00B
:1037900080F48E3009F07ACF90919B03892F8B7F34
:1037A00092FF846080939B0382FF9CC08BE89BE028
:1037B00090C0863109F4A9C0893109F067CF8BE741
:1037C00091E09F938F9382EF9AE09F938F930E9453
:1037D00077080F900F900F900F90D5CF8A32D1F1CC
:1037E00018F5873299F128F48E3108F44FCF8D51B6
:1037F0002EC0893209F04ACF8EEC9BE00E94DE0792
:1038000080910D0190910E01892B09F4BCCF0E948B
:1038100058179FEF24E38CE0915020408040E1F75F
:1038200000C000000E944910833468F48A3308F015
:1038300091C0853359F0883309F028CF88E299E0A8
:103840000E94DE07A0CF833409F020CF80E00E94E1
:10385000331A99CF8EEE9BE00E94DE070E94C41AB5
:1038600092CF80919B03807F80939B038BEC9AE0A7
:103870000E94DE078AEE9BE00E94DE0781E08093D3
:103880009A03CDB7DEB7E6E00C94AF2F90919B037F
:10389000892F8E7F90FF816080939B0380FF03C000
:1038A00082EC9BE0CDCF85EB9BE00E94DE07809110
:1038B0009B03817F80939B0366CF90919B03892F0D
:1038C0008D7F91FF826080939B0381FF08C088EA0F
:1038D0009BE00E94DE0780919B038160EBCF8AE929
:1038E0009BE0AECF8BE79BE0ABCF90919B03892F02
:1038F000877F93FF886080939B0383FF03C08FE6DD
:103900009BE0E7CF82E69BE09BCF0E94170A162F31
:10391000072FF82EE92ED091B303C09115010E9414
:10392000750AEF92FF920F931F931F92DF931F92DE
:10393000CF931F928F9385EF9AE09F938F930E946E
:1039400077088DB79EB70C960FB6F8949EBF0FBE42
:103950008DBF19CF89537BCFCF93C82F882309F40C
:103960005AC08CEF8C0F813A08F064C080919A03A2
:10397000813021F18823C1F0823009F449C01092CE
:103980009A03EEE8F2E0DF018D91C81709F445C013
:1039900082E0A439B807C1F76C2F8CE892E00E944E
:1039A0002F0A0E94701637C080910E03823249F7A9
:1039B0008C2F0E942F1B81112EC0E3CF80910E030C
:1039C0008232B1F3C431C9F048F4CB3059F0C03180
:1039D000C1F081EB91E00E94DE0711C0C93269F0AD
:1039E000C833B9F78BEC9AE00E94DE0783EB91E0D5
:1039F0000E94DE0781E08170DECF10929A0380E0A2
:103A0000FACF82E080939A0388E30E94F911F2CF03
:103A10008C2F0E94F911CF9108958191C81303C092
:103A2000DF0111971C9282E0E439F807B1F70E9498
:103A30007016B2CF80E28C0F883068F4C77021E036
:103A400030E001C0220FCA95EAF780910E03822B65
:103A500080930E03A6CFEBE5EC0FE33040F4F0E0EB
:103A6000E75CFD4F808190E00E945F0AD4CFE8E5DB
:103A7000EC0FE73150F4F0E0EE0FFF1FE45CFD4F78
:103A8000808191810E94490AC6CFC03F20F28C2FCD
:103A90000E94280C0E941513BECF1F93CF93DF9373
:103AA000182FD0E0C0E0893311F4C0E5D0E0812FB9
:103AB0000E94AC1C209739F4812F0E94881ADF9154
:103AC000CF911F9108958FE99FE00197F1F700C012
:103AD00000002197EFCF0F931F93CF93DF93C62F53
:103AE000D42F022FFC0182818823A9F06093CB039D
:103AF0000E94230A9093CA038093C903C77081E090
:103B000001C0880FCA95EAF70E947E1ADF91CF9113
:103B10001F910F9108958091CB03681332C080915B
:103B2000C9039091CA030E94080A883C910548F590
:103B300010E21D0FCD17B9F080E28C0F883040F4F1
:103B4000C77081E001C0880FCA95EAF70E94771A12
:103B5000183048F481E09D2F977001C0880F9A9526
:103B6000EAF70E947E1A802F0E944D1D183070F6D1
:103B7000D77081E001C0880FDA95EAF70E94771AC2
:103B8000C5CFC77081E001C0880FCA95EAF7F6CFAC
:103B9000B0E0A0E0EEECFDE10C948F2FEC018AE0A8
:103BA000A82E2881222309F48FC02130C9F59981DC
:103BB0008A81913021F422960E944D1D05C09230D9
:103BC00029F422960E94AC1C2196EBCF933021F46D
:103BD00022960E94881AF8CF943011F02196F4CFE3
:103BE000229630E020E0AE014F5F5F4F8053990B8B
:103BF0008A30910550F02150310930F38FE99FE070
:103C00000197F1F700C00000F6CFA29EB001A39E7D
:103C1000700D11249C01260F371F8981EA01E3CF23
:103C2000E22FF0E0E155F14FB490822F8695869512
:103C3000869590E0FC01E156F14FE4902770F12C5D
:103C4000022E02C0F594E7940A94E2F731E0E322F1
:103C5000FF24FC01E157F14FC490D12C022E02C089
:103C6000D594C7940A94E2F731E0C322DD24FC0125
:103C7000E158F14F049110E002C0159507952A957F
:103C8000E2F701701127E114F10419F081EE0E94AE
:103C9000AC1CC114D10419F086EE0E94AC1C8B2D13
:103CA0000E944D1DC114D10419F086EE0E94881A9D
:103CB000E114F10419F081EE0E94881A0115110532
:103CC00009F482CF8CE278CFCDB7DEB7EAE00C946E
:103CD000AB2FA5E0B0E0EFE6FEE10C948D2F6C0178
:103CE000FC0183819481892B31F08081918189232A
:103CF0008F3F09F098C52596ECE00C94A92F0E94FF
:103D00000A14182F682F89819A810E94BD0E69813B
:103D10007A81812F0E94ED138C01F6018281882324
:103D200009F476C5980122513F452031310508F04C
:103D300048C58FEF93E00E94E82F8111A8C05EEE86
:103D4000F52EF00E07E212E0F11036C019821A8249
:103D50001B821C8299249A9478012FEFE21AF20AAE
:103D6000C8010E94E82F89831A82882309F48FC032
:103D7000813009F081C0580132E0A30EB11CC701A7
:103D80000E94E82FE82E8A83882309F480C0C501A9
:103D90000E94E82FF82E8FEF8E0D8330D8F4580153
:103DA00043E0A40EB11CFB82FF2021F0CE0101965E
:103DB0000E94C81D8501D0CF0115F4E01F0709F44A
:103DC00066C0C8010E94E82F811101C0FA940F5FFC
:103DD0001F4FBACF8BEF8E0D833040F5C80103968D
:103DE000FB825C01FF2031F3580154E0A50EB11CA9
:103DF0000E94E82F8C838823E9F20B811C8101301B
:103E00008FEF180710F0102F002796E0E91651F0F9
:103E1000E7E0EE1619F0C8010E945B27C8010E9476
:103E20002327C8CFC8010E945B27C4CFF4E0EF125C
:103E3000C1CF580124E0A20EB11CC80103960E9414
:103E4000E82FFF2021F1882311F18150990B989ED2
:103E50009001999E300D11244F2D4150550BCA01F0
:103E6000820F931F019708F4A5CFEFE9FFE0319788
:103E7000F1F700C00000F6CFCE0101960E94C81DE8
:103E8000570198CF81E00E9430170E94DF16809181
:103E90000403877009F42FCFF6018281882309F487
:103EA0002ACF8091360382FF26CF82E00E94F81647
:103EB00022CF81E00E94EB16E8CF82E0E4CF053FFD
:103EC000ECE51E0709F461C008F45BC0063F2CE571
:103ED000120709F45EC0882309F4B6C41092CB031C
:103EE00003303DE5130708F05BC00A3F4CE51407BB
:103EF00030F4C80182509C45449708F05CC00E9491
:103F00007F1490933603809335030231ECE51E074E
:103F100009F45CC108F0A8C009302CE5120709F4C7
:103F20002FC108F077C005304CE5140709F41CC117
:103F300008F05EC003308CE5180709F40DC108F0E5
:103F40000FC18091350381600230ECE51E0709F452
:103F500088C0609135031091360384E090E00E94A0
:103F6000FC2F612F82E290E00E94FC2F0E945817E4
:103F70008ECF27E245EE65EE47C426E241EE60EEC5
:103F800043C427E245EE64EE3FC426E241EE62EE12
:103F90003BC427E245EE66EE37C428E241E0EBCFB2
:103FA000053A5DE5150709F4AACFE0F401369DE571
:103FB000190709F4A4CF0631ECE51E0709F0C6C4C1
:103FC00080910E038A7A91E009F490E09093980230
:103FD00069E2811165E38CE892E00E942F0A0E9459
:103FE000701655CFC8018D5A9D45039720F787CF8E
:103FF0008091350380620730FCE51F0791F18091C5
:104000003503806108302CE5120758F180913503A3
:10401000806427C00D303CE5130709F4BFC068F485
:10402000809135038E7F0B305CE51507D1F008F4E5
:10403000ADC0809135038D7F14C00F309CE519070A
:1040400009F4BCC008F4AEC00031FCE51F0709F458
:10405000B9C0809135038F7B01312CE5120709F03F
:1040600078CF8093350375CF0F3F3CE5130709F4F4
:10407000B7C0A8F50A3F5CE5150709F479C0C0F49C
:1040800004319CE5190709F4B9C008F4A5C005314D
:10409000FCE51F0709F05DCF8091350382FB99276E
:1040A00090F921E0922790FB82F990FB83F9D9CF18
:1040B0000C3F2CE5120709F479C008F45DC00D3FF0
:1040C0004CE5140709F476C08091360383600E3FF7
:1040D0005CE5150709F03DCF809336033ACF0136F2
:1040E0008DE5180709F495C090F40130EDE51E0741
:1040F00009F48DC008F478C060E002302DE51207A5
:1041000009F027CF8EE090E00E94FC2F22CF0D3ADD
:104110003DE51307E9F060F490913503892F8E7F18
:1041200090FF8160053A5DE5150709F49ACF11CF3C
:104130000E3A8DE5180771F10F3A9DE5190709F060
:1041400008CF90913603892F877F93FF8860C4CF73
:10415000809136038860C0CF80913503826081CF23
:104160008091350384607DCF80913503886079CF5D
:10417000809136038160B0CF809136038260ACCFEE
:104180000E9458178091350380686BCF809135036A
:104190008C6067CF80913603877F9ECF80913503F7
:1041A0008B7F5FCF80913503877F5BCF8091360314
:1041B0008E7F92CF809136038D7F8ECF8091350395
:1041C0008F7E4FCF809135038F7D4BCF0E94581744
:1041D000809135038F7745CF80913503837F41CF21
:1041E000809136038C7F78CF80913603982F9095FD
:1041F00091708E7F892B90FB81F96ECF0E945817AA
:1042000090913503892F97FB87F980582ACF61E079
:1042100079CF90913503892F8F7E94FF806121CFD4
:104220008091980281110FC089E2EEE8F2E024E962
:1042300032E09191891303C0DF0111971C922E1770
:104240003F07B9F7CCCE85E3F0CF8160809391032F
:1042500061E086950E94F9151ACE4BE356E165E4BC
:1042600076E10E94820A13CE45E456E16BE376E1E3
:10427000F8CF41EC55E16BEC75E1F3CF4BEC55E138
:1042800061EC75E1EECF47EA55E164EB75E1E9CF0A
:1042900044EB55E167EA75E1E4CF4AE955E16DE8A1
:1042A00075E1DFCF45ED55E167EE75E1DACF47EE19
:1042B00055E165ED75E1D5CF61E081E0CBCF0E949E
:1042C00058174FEF54E38CE0415050408040E1F7E5
:1042D00000C000000E9449108091360382FB8827AD
:1042E00080F991E089270E941417F60182810081EC
:1042F0001181882309F445C0C8010E940A14F82ED0
:10430000682FC8010E94BD0EB8018F2D0E94ED13C9
:104310000E94D30C8C01882EF601E280B580B29405
:104320003FE0B322809104038770C1F0AE2CEE20F1
:10433000B1F0812F807F803421F080E2800F8830BF
:1043400068F08091360382FF09C082E00E94F8166F
:10435000809104038770AA24A3948111A12C912E2B
:1043600092942FE09222FBE0F91508F476C0E92D33
:10437000F0E0E45CFF4C0C947A2F81E0B4CF80E055
:10438000B2CFC8010E94890EF82EBECF212F2F7008
:10439000F22E107F19F0F29490EFF922EE20B9F08E
:1043A000FF2069F080E2800F883010F0811009C092
:1043B00080910E03F82AF0920E030E947016802F4F
:1043C0004AC080910D03F82AF0920D03F6CF802F9A
:1043D0000E94881AFF2009F440C0005E083010F0E7
:1043E000811004C08F2D0E94710E06C0F094809140
:1043F0000D03F822F0920D030E9470162EC0312F8B
:104400003F70F32E107F103219F0F29480EFF822F3
:10441000882089F041E0841609F491C0EE2009F467
:104420009AC0BB2009F467C0F601858180FFC7CF21
:104430008F70858360C08091360382FD35C0EE2089
:1044400069F1FF2039F080910E03F82AF0920E03F3
:104450000E94701680E00E94AC1C292D2850330B5E
:104460002430310510F40E94750AAA2009F443CCC7
:104470008091040380FD3FCCF601128285958595DD
:1044800085950E943017C6010E94691E8091040321
:104490008595859585950E94EB162DCC80E00E9430
:1044A000881AFF20D1F29ECFEE2049F1B11004C04E
:1044B000809111038F2920C051E0B51210C082FFF6
:1044C000CCCF80911103F82AF81639F20E94230A02
:1044D0009093100380930F03F0921103BECF85E0F9
:1044E000B812E6CF0E94660E909199028F2D892B0B
:1044F0008913809399028F2D0E947E1AAECFB1103E
:1045000003C00E94660E12C091E0B91213C08091E0
:104510000E038F2109F4A1CF0E94660E909199029B
:104520008F2D809589238913809399028F2D0E9466
:10453000771A93CFE5E0BE1609F48FCFE2CFEE20D5
:1045400029F0F5E0FB1508F488CFD5CF24E02B1532
:1045500008F483CFEBCFBB2049F3F9E38F1209C0F6
:104560002FEF37EE43E0215030404040E1F700C0EC
:104570000000802F0E94881A70CF812F8695869523
:10458000837061F0813009F068CFC8019370E11049
:1045900002C090E080E00E94490A5FCFC80193709A
:1045A000E11002C090E080E00E945F0A56CF802FA9
:1045B000EE2029F00E94280C0E9415134ECF0E9475
:1045C0002E0BFACF812F837089F5E11046CF402F53
:1045D000429546954770440F440F802F8F70042EEC
:1045E00001C0880F0A94EAF7202F207104FF07C04A
:1045F0002FE030E001C0220F4A95EAF7209516958A
:1046000016951370123069F050F430911203113086
:1046100029F0822B83230E9453171FCF832B822BD9
:10462000FACF282B809112038227F5CF8695EE20B2
:1046300011F0812F8170882309F40FCF402F42950C
:1046400046954770440F440F802F8F70042E01C091
:10465000880F0A94EAF7202F207104FF07C02FE08B
:1046600030E001C0220F4A95EAF72095169516957D
:104670001370123069F050F43091CC03113029F0EE
:10468000822B83230E94DA16E8CE832B822BFACF6B
:10469000282B8091CC038227F5CF1F70EE2029F0C4
:1046A000812F0E943017802F27CF802F0E94771AEA
:1046B000812F0E94EB16D1CE802F52EF8516B1F1DB
:1046C000581570F090EF8916D1F0E1EF8E1691F049
:1046D000EE2009F466C0B11072CE812F8F712AC00E
:1046E000F3EF8F1651F124EF8212F2CF809136034F
:1046F00082FD2FC0812F8F71EE20D9F21BC0EE20DA
:1047000081F034E03B1508F4A8CE1F7181E090E001
:10471000012E01C0880F0A94EAF79091CC038927F3
:10472000B1CF45E04B1508F498CEEFCF812F8F71B4
:10473000E110BFCF0E94301790CE80E0EE2009F448
:10474000A1CF1F7181E0012E01C0880F0A94EAF702
:1047500099CFEE20C9F0809104038770843041F432
:104760000E94780E812F8F710E94EB16A12C75CEBE
:1047700054E05B15D8F31F71812F0E94301763E05E
:10478000812F0E943C17F2CF84E08B1530F40E94F9
:10479000780E64E0812F8F71F4CF81E00E94F816CB
:1047A000E5CFBB2059F0893309F0E3CE9FEFE7EE68
:1047B000F3E09150E040F040E1F7D9CE812F8F71C6
:1047C00078CF0031FFE51F0709F45CCB01312FE5FD
:1047D000120709F472CB033F2CE5120709F4CDCB85
:1047E00008F06DCB083D4CE5140709F4C2CB093D38
:1047F0005CE5150709F4D1CB073D9CE5190709F0E5
:104800006ACB26E241EE61EEC6010E946B1D3FCBF2
:1048100000313FE5130709F44CCB01314FE5140794
:10482000D1F682E047CB85E0DE01119601900D9232
:104830008A95E1F7F601228189819A8121115FCA67
:104840000E94890E182F63CA0631FCE51F0709F480
:10485000E7CC80910E0382720A3C2CE5120709F422
:104860001CCD08F047C0053C4CE5140709F401CD08
:1048700058F5033C9CE5190709F4EFCC08F0F4CC9B
:10488000023CFCE51F0709F030CD8091910380FFC9
:10489000DCCC8E7F809391036091910370919203A1
:1048A00080919303909194030E94361510926303B4
:1048B000FFEF20E732E0F15020403040E1F700C048
:1048C00000000E946D10E3CA073C2CE5120709F4B2
:1048D000DACC08F4D3CC083C4CE5140709F4D8CC66
:1048E000093C5CE5150709F000CD4DE855E16AE9A2
:1048F00075E1B7CC0F3C9CE5190709F4C8CA98F4D8
:104900000C3CFCE51F0709F4D2CC08F4CBCC0D3CE1
:104910003CE5130709F4D0CC65E082E00E3C4CE5A1
:10492000140761F0E2CC063D5CE5150750F4013D4B
:104930008CE5180708F0ABCA6BE086E00E945016C1
:10494000A6CA0D35100709F4A2CACFCC0A35EDE589
:104950001E0709F412CD68F401152CE5120709F4BD
:10496000AECC0E3D1C4509F0C0CC0E94C41A0E947A
:104970004C1A0C354DE5140709F4AECC08F4FFCC05
:10498000073A1D45A1F3B1CC1F93CF93DF938091DC
:10499000CF02807F09F049C08091CC02882309F4BE
:1049A00044C080910103D091D0026091CA027091FD
:1049B000CB02A091CD02B091CE02C62FC72316E044
:1049C000D81799F190E0109711F0CF3F19F40196A4
:1049D0008770F6CF189F9001199F300D1124F901AF
:1049E000EF52FD4F41814713F2CF40814613EFCF85
:1049F00042814111ECCF438154814A1B5B0B483CFF
:104A0000510528F78091CF028F7080618093CF028B
:104A1000F901EA52FD4F80818F70806180838AECBA
:104A200092E00E94691E0E947F0EDF91CF911F913C
:104A30000895A1E1B0E0EFE1F5E20C948F2F8C0135
:104A400085E0F801DE011D9601900D928A95E1F74F
:104A5000F801E2808AECA82E82E0B82E6091CD02A7
:104A60007091CE026115710509F426C19091CA02B8
:104A70004091CB02892F84238F3F09F41DC12081EF
:104A80003181C380D480F090CC02F601E61BF70B95
:104A9000FF2009F4DCC08091CF02582F507FE83C02
:104AA000F10508F09FC051116BC0FE2C431314C0D8
:104AB000921312C0E11010C08F7080618093CF02FA
:104AC000C5010E94691E8091CF02F80185838F2D58
:104AD0006196EAE00C94AB2FC114D10429F0822F27
:104AE00083238F3F09F003C180E0F82FF170DF2EA0
:104AF00080FF3CC0809101034091D00256E08413B6
:104B000015C02D873E878D859E850E943914292FDB
:104B100022952F702230F0F0243018F59F70F1F0BC
:104B2000F8019581907FD1F4D12C1EC090E0589F60
:104B3000F001599FF00D1124EF52FD4F61813613A2
:104B400006C06081261303C06281E6120FC0019681
:104B50008770D5CF9F7011F0882331F3805E883045
:104B600018F3C8010E94691EFD2CB1CFEE2009F494
:104B7000AECF8091CF0281608093CF02F12CA7CF7E
:104B8000431306C0921304C0F801EE2009F479C063
:104B9000C8010E944614882309F1EE20F9F08091A3
:104BA000CF02803270F02091CA023091CB02388758
:104BB0002F831986DB86CA868C87CE0107960E94D2
:104BC000691E86E0F801AAECB2E001900D928A9588
:104BD000E1F70E94C424FF24F39479CFC8010E9416
:104BE000691EF9CF51110AC08AEC92E00E94691E39
:104BF00086E0F50111928A95E9F7C0CF43130FC003
:104C000092130DC0E1100BC0F8018583C8010E940A
:104C1000691E86E0F50111928A95E9F758CFC8011F
:104C20000E9446148823D1F2EE20C1F28091CF0277
:104C3000803238F22091CA023091CB023A83298324
:104C40001B82DD82CC828E83CE010196B8CFE83CF8
:104C5000F105F8F6FE2CEE2009F243131FC0921363
:104C60001DC08091CF0280FD10C0982F907F69F009
:104C7000F8018583903F31F0982F907F905F8F707F
:104C8000892B8583C8010E94691E86E0F801AAEC81
:104C9000B2E001900D928A95E1F719CFC8010E9408
:104CA000461481118ECF8091CF0281608093CF0214
:104CB000C8010E94691E0BCFEE2009F48FCFC801F6
:104CC0000E944614F82E882309F488CF86E0F80164
:104CD000AAECB2E001900D928A95E1F78091CA02A8
:104CE0009091CB020E9439140E94C424F0CE81E03E
:104CF0008E25FBCEA7E1B0E0E0E8F6E20C94962F1B
:104D00004B8B5C8B6D8B7E8B8F8B611110920D03A7
:104D10001A8A198A85E0FE017396DE011D960190BC
:104D20000D928A95E1F78091360382FF1CC00E94A4
:104D3000230A2091020330910303821B930B8838CE
:104D4000934120F08091040382FF79C00E94230ADE
:104D500020910F0330911003821B930B88389341ED
:104D600010F00E94660E86E0FE013D96DE01179669
:104D700001900D928A95E1F7CE0107960E941925C0
:104D8000882359F016E0809101039091D002891395
:104D900043C06796E3E00C94B22F86E0FE0137969D
:104DA000DE01119601900D928A95E1F78A859B8527
:104DB000892B41F38F81988589238F3F19F32091A7
:104DC000D00230E0C9010196877099274091010314
:104DD0004817190671F40E9458171092D0021092C9
:104DE000010386E0EAECF2E0DF011D928A95E9F723
:104DF000C9CF96E0929FD001939FB00D1124AF527E
:104E0000BD4FFE01319601900D929A95E1F7809386
:104E1000D0020E947F0EB6CF819FC00111248F5215
:104E20009D4F0E941925882309F4B3CF8091010377
:104E300090E001968770992780930103A4CF82E0C8
:104E40000E94F81683CFA5E0B0E0E9E2F7E20C9407
:104E5000952F8C019093970380939603011580E220
:104E60001807C0F4802F0E94881AC8010E94340FCE
:104E70009801205E31092830310518F0011511051F
:104E800031F40E94771A2596E4E00C94B12F0E9429
:104E9000621AF9CF80EF89838A831B820E94230ADA
:104EA0008160782F9D838C8349815A816B818D81AC
:104EB0000E947A26E8CFA5E0B0E0E1E6F7E20C94A4
:104EC000952F8C019093970380939603011580E2B0
:104ED0001807C0F4C8010E94340F9801205E310900
:104EE0002830310518F00115110549F40E947E1A89
:104EF000802F0E94AC1C2596E4E00C94B12F0E94F8
:104F00006D1AF6CF80EF89838A8381E08B830E94BC
:104F1000230A8160782F9D838C8349815A816B811C
:104F20008D810E947A26E7CF90E080E00E94F62FE4
:104F3000883E9E4F19F40E946614089580E00895FB
:104F40001F920F920FB60F9211242F933F934F93FE
:104F50005F936F937F938F939F93AF93BF93CF9301
:104F6000DF93EF93FF93D091E900DF708091EC0025
:104F7000C82FC17080FDC0E81092E9008091F00058
:104F8000877F8093F00078940E9464171092E90064
:104F90008091F00088608093F000CD2BCF70C0939B
:104FA000E900FF91EF91DF91CF91BF91AF919F9178
:104FB0008F917F916F915F914F913F912F910F90C2
:104FC0000FBE0F901F9018951F920F920FB60F9261
:104FD00011242F933F934F935F936F937F938F93FE
:104FE0009F93AF93BF93EF93FF938091E10082FF74
:104FF00015C08091E20082FF11C08091E1008B7F9B
:105000008093E1002091B1032F5F822F62E30E9421
:10501000462F992309F4C0C02093B1038091DA0090
:1050200080FF28C08091D80080FF24C08091DA00E2
:105030008E7F8093DA008091D90080FFE3C080E109
:1050400089BD82E189BD09B400FEFDCF81E0809376
:10505000BF0388E99DE00E94DE078091B2038111C1
:1050600009C00E9480080E944B098091E200846080
:105070008093E2008091E10080FF1BC08091E200FC
:1050800080FF17C08091E2008E7F8093E2008091C4
:10509000E20080618093E2008091D800806280937A
:1050A000D80019BC85E08093BF0380EA9DE00E9490
:1050B000DE078091E10084FF2FC08091E20084FF31
:1050C0002BC080E189BD82E189BD89B5982F91709F
:1050D00080FFFBCF8091D8008F7D8093D800809196
:1050E000E1008F7E8093E1008091E2008F7E8093CB
:1050F000E2008091E20081608093E2008091C00331
:10510000882309F489C084E08093BF0384EA9DE08A
:105110000E94DE078091BF038091E10083FF2BC0D6
:105120008091E20083FF27C08091E100877F809318
:10513000E10082E08093BF031092C0038091E10000
:105140008E7F8093E1008091E2008E7F8093E20069
:105150008091E20080618093E20042E060E080E0C4
:105160000E9419098091F00088608093F00088EA1D
:105170009DE00E94DE07FF91EF91BF91AF919F915B
:105180008F917F916F915F914F913F912F910F90F0
:105190000FBE0F901F9018951092B1038091B0032D
:1051A000882309F43BCF8091BF038430C1F49091F0
:1051B000E9009F702091EC00822F817020FD80E833
:1051C000892B95E09093E9009091EB0090FF04C04B
:1051D0009091EE0097FD08C08F708093E9001092C7
:1051E000B0031CCF1092F1009091E80095FDFACF2A
:1051F0009091E80090FFF0CF9091E8009E77909317
:10520000E800EACF19BC1092BF038CE99DE00E9430
:10521000DE071092B2032ECF8091E30087FD93E06A
:105220009093BF0373CF78941F921FB61F921124DF
:105230008F939F93AF93BF938091A8039091A903FD
:10524000A091AA03B091AB030196A11DB11D80935B
:10525000A8039093A903A093AA03B093AB03BF91B3
:10526000AF919F918F911F901FBE1F9018951F9215
:105270001FB61F9211248F939F93AF93BF9380917A
:10528000A703811113C08091A8039091A903A09155
:10529000AA03B091AB034196A11DB11D8093A80351
:1052A0009093A903A093AA03B093AB03BF91AF91CE
:1052B0009F918F911F901FBE1F901895CDB7DEB79D
:1052C000E2970FB6F894DEBF0FBECDBF85B78068FA
:1052D00085BF85B7806885BF84B7877F84BF0FB6D9
:1052E000F894A89580916000886180936000109286
:1052F00060000FBE80E890E00FB6F89480936100E4
:10530000909361000FBE85E69FE090938B0280939F
:105310008A020E9480080E944B098091E20084600A
:105320008093E20078948091BF038823A1F01091CC
:10533000E9001F709091EC00892F817090FD80E84A
:10534000182B1092E9008091E80083FD0E946417F9
:105350001F701093E90082E084BD93E095BD9AEF41
:1053600097BD80936E000E946614811102C00E9456
:1053700026158FEF84B980E485B957985F9A87B175
:10538000806C87B988B1806C88B92E9A2F98E5E235
:10539000F3E0119223E0E533F207D9F7E5E1F3E01A
:1053A000119243E0E532F407D9F785E293E0909358
:1053B0003B0380933A0385E193E090931403809339
:1053C00013030E949427811102C00E94C41A82E034
:1053D00090E00E94E82F80939B030E947F1490939B
:1053E0003603809335030E9405118FE39CE90197F2
:1053F000F1F700C000000E940511E0913A03F0911E
:105400003B03808180FF08C06FEF7FEF90E080E07A
:105410000E941A300E94491083E090E00E94E82F19
:105420000E94531780913703811133C00E94942743
:10543000811104C00E94C41A0E94601688E090E0A6
:105440000E94F02F609391037093920380939303D3
:10545000909394036E7F71F40E94601688E090E050
:105460000E94F02F609391037093920380939303B3
:10547000909394030E94890A109263038091910390
:1054800080FF04C060E086950E94F91581E080935A
:10549000370380E091E09093A4038093A303A0E1FD
:1054A0006A2EB2E17B2E10E1A12EBB24B3948E01B3
:1054B0000F5F1F4F8091BF03853069F487EB91E048
:1054C0000E94DE078091BF03853009F45AC00E9414
:1054D00058170E94750A0E940511FCE3CF2EF3E0D5
:1054E000DF2EE0913A03F0913B039F01205F3F4F95
:1054F000D6019D9181912E173F0709F458C0981746
:10550000C1F380919B0381FD8DC1F12CE12C3E2CD8
:10551000E0913A03F0913B03EE0DFF1D9080F60100
:1055200041906F01491419F14924812C5524539459
:10553000842D8521A1F08EA63FA691E0892D85219D
:1055400009F490E098AB0E94230A8160782F9AAB0F
:1055500089AB4EA55FA568A98AA90E947A26839483
:10556000550CF8E08F12E4CFF601319790822FEFBF
:10557000E21AF20A40E1E416F10449F60E94170A21
:1055800036C00E94F30E8091BE03882309F49ACF9F
:105590000E940511E0913A03F0913B03CF01409640
:1055A000219121114FC48E179F07D1F78BCF9813EC
:1055B000A8CF0E94230A7C0180913803909139037F
:1055C000E816F906A1F08FEF89A78AA71BA60E940B
:1055D000230A8160782F9DA78CA749A55AA56BA5A2
:1055E0008DA50E947A26F0923903E09238038091CB
:1055F00063038823D1F180916203E0919103E695E2
:10560000E81BE0935E03823009F035C1F0E0E75219
:10561000FE4FE491EE2EF12C7DEDC72E70E1D72EDA
:1056200080915F03882361F010925F030E94230A38
:1056300090935D0380935C0310926103109260036A
:105640000E94230AE0915C03F0915D038E1B9F0B87
:105650008F3F9F4750F4EE0EFF1EF0925D03E092E5
:105660005C038CE593E0F601099586E0E6E5F3E05E
:10567000D80101900D928A95E1F71092580310928B
:10568000590310925A0310925B038B819C81892BE2
:1056900091F080915403909155030E94080AAC0147
:1056A00090915103992309F4FDC08091130184174F
:1056B000150608F405C18D819E81892B09F44AC025
:1056C00080915203909153030E94080A9C0190918B
:1056D0004F03992309F4D5C321353105D8F19F3FF4
:1056E00019F09F5F90934F03FD80FF2059F00E94B7
:1056F000B10B9FEF1F140CF491E0899F802D1124B2
:1057000080935A03FE80FF2059F00E94B10B9FEF57
:105710001F140CF491E0899F802D112480935B036A
:1057200030915A033323B1F020915B03222391F08F
:1057300045EB3403C0011124992309F400C190936F
:105740005A0345EB240390011124332309F4FAC0D2
:1057500030935B0346E050E0B80186E593E00E9499
:10576000D42F892B61F48091580390915903892B90
:1057700090915A03892B90915B03892B11F00E9421
:10578000151386E0F801A6E5B3E001900D928A9525
:10579000E1F70E94750A90914C03891721F08093DC
:1057A0004C030E94170A8091BF03843009F082CE17
:1057B00083E08093E9008091E80082FF7BCE8091B6
:1057C000E80090E085FF0AC00E949F0830E2C32EE7
:1057D000D12C7801882309F4C2C091E08091E800BF
:1057E0008B778093E800992309F464CEE0909803C6
:1057F000F09099038981E114F10409F4BEC08E3F51
:1058000009F04BC18A81833020F08550833008F045
:1058100044C1EA81EE3008F040C1F0E0E85BFF4CA3
:105820000C947A2F87EC91E00E94DE07F12CE12C9A
:10583000EBEB8E2EE1E09E2EE0913A03F0913B03DC
:10584000EE0DFF1D80810E941C0F1F928F93FF920F
:10585000EF929F928F920E9477089FEFE91AF90AC0
:105860000F900F900F900F900F900F90E0E1EE16B9
:10587000F10411F74ACE40EDE42E47E0F42E58E84B
:10588000C52E5AE0D52E863009F0CACEE695F0E056
:10589000EA52FE4FE491EE2EF12C62EAC62E60E150
:1058A000D62EBECE20911401FAE02F9F9001112434
:1058B0002417350708F0FFCE9F5F9093510302C075
:1058C0009F3FD1F7FB80FF2059F00E94EA0B9FEF2A
:1058D0001F140CF491E0899F802D112480935803AC
:1058E000FC80FF2059F00E94EA0B9FEF1F140CF47C
:1058F00091E0899F802D11248093590330915803A2
:10590000332309F4D8CE20915903222309F4D3CEAE
:1059100045EB3403C0011124992359F090935803A7
:1059200045EB240390011124332331F030935903C4
:10593000C2CEB0925803F4CFB0925903BCCEB0920D
:105940005A03FFCEB0925B0305CF8091F100F701BF
:1059500081937F01F1E0CF1AD10809F43ECF809105
:10596000E80085FDF2CF8091E8008B778093E80016
:105970000E949F08882399F330CF893009F43FC1F2
:1059800070F5843009F4C1C058F4823009F474C051
:1059900008F0ACC0813009F46BC08FEF89837DC003
:1059A000863009F4C8C008F4BBC0873009F4C6C00B
:1059B000883099F78A81813809F416C108F008C146
:1059C000803809F06AC080919403EFEF8E9FC00188
:1059D00011246FEF70E00E94522F6B835EC0803104
:1059E00009F444C1C8F58D3009F414C120F48C3099
:1059F000A1F6AA8252C08E3009F40FC18F3069F629
:105A000080910D0190910E01892B09F446C0CC8044
:105A1000D12C4DE1C416D10408F03FC0EA80FB80D0
:105A2000FE24EF24FE244801CE0CDF1CC701895D53
:105A30009D4FCE14DF0489F1E9EDEE16E1E0FE069C
:105A400020F4F40164810E94FC2FFFEF8F1A9F0A5B
:105A50002FEFE21AF20AEACF823109F40DC108F4FD
:105A600008C1833109F42FC18E3F09F096CFD1CE02
:105A70001A8289E08B8311C08A81823009F4F8C1CF
:105A8000833059F0813009F088CF0E94170A0E94B4
:105A9000802F6B837C838D839E838091BF038430B2
:105AA00009F008CDF090E900FF2DFF70FF2E9091D6
:105AB000EC00892F817090FD80E8F82A82E08093C5
:105AC000E9008091E80080FF0CC050E040E060E217
:105AD00070E0C8010E94D0088091E8008E77809322
